:020000040100F9
:1020000000008200DD200001E9200001AD478000D2
:10201000BB478000BD478000BF4780000000000034
:102020000000000000000000000000008547800064
:10203000F320000100000000F5200001F73E000140
:10204000F720000139380600DD370600452E000173
:10205000F7200001F7200001F7200001F720000120
:10206000B13F0001BD3F0001F7200001F720000152
:10207000C93F0001F7200001F7200001F72000010F
:10208000F7200001F7200001F7200001F7200001F0
:10209000F7200001F7200001F7200001F7200001E0
:1020A000F7200001D1370600C1478000F72000016A
:1020B000F7200001F7200001F7200001F7200001C0
:1020C000F7200001F7200001DFF80CD000F0B4FC8D
:1020D00000480047B32A00010000820006488047FC
:1020E0000648804706480047FEE7FEE7FEE7FEE7B2
:1020F000FEE7FEE7FEE7FEE7BDE800018D3F0001D9
:10210000E5CD00012DE9F05F0546002092469B4693
:1021100088460646814640241BE0284641464746FD
:10212000224600F08EFB53465A46C01A914110D306
:1021300011461846224600F075FB2D1A67EB010880
:102140004F4622460120002100F06CFB17EB0009EE
:102150004E41201EA4F10104DFDC484631462A46E8
:102160004346BDE8F09F00000649074A086850430F
:1021700043F2390210440860400870470149086082
:1021800070470000704780006D4EC64140EA010371
:102190009B0703D009E008C9121F08C0042AFAD21D
:1021A00003E011F8013B00F8013B521EF9D27047E1
:1021B000D2B201E000F8012B491EFBD27047002289
:1021C000F6E710B513460A4604461946FFF7F0FF36
:1021D000204610BD30B504460020034600E05B1CDD
:1021E000934203D2E05CCD5C401BF8D030BD962317
:1021F0000022114600F050BB00F0A2BD00F0F2BF7B
:102200005858524701000000000000000020000163
:10221000002000015998524901010000000000000F
:1022200000000000000000000000000000000000AE
:10223000000000000000000000000000000000009E
:10224000F0B480EA0102D40F4200B2EB410F02D297
:102250000246084611464A0042D0C30DDDB2C1F322
:10226000C752AD1A202D35DAC1F3160141F4000230
:1022700004B15242C5F1200602FA06F12A41104487
:10228000B3EBD05F23D0C4B1012DA0EBC35009DC68
:10229000F0BC4FF0004202EAC352DBB200F500008E
:1022A00000F0FABA400000F1807000EBC350A0F1DA
:1022B000807040EAD170490009E0490841EAC071E4
:1022C000A0EBC35000F50000400800EBC350F0BC89
:1022D00000F0D9BA6142012202EB4101001BF6E78E
:1022E000F0BC704781F00041AAE780F00040A7E70A
:1022F00030B480EA010202F0004530F0004221F0E3
:10230000004013D090B1C30DD40DC2F31601C0F339
:102310001600E41A41F4000140F400027D349142B9
:1023200001D3641C00E04900002C02DA30BC00201C
:1023300070474FF400000023914201D3891A0343F0
:1023400040084FEA4101F7D151B1914202D14FF01B
:10235000004105E002D24FF0010101E06FF0010100
:1023600003EBC450284430BC00F08DBA2DE9FE4F79
:10237000804681EA0300C00F0C46009021F0004126
:1023800023F00045B8EB0200A94105D240462146A2
:1023900090461C460B46024623F00040104347D0AF
:1023A000270DC7F30A00C3F30A510290401A0190A7
:1023B00040286BDAC3F3130040F4801B0098924668
:1023C00020B10023D2EB030A63EB0B0B01985946B3
:1023D000C0F14002504600F025FA06460D46504630
:1023E0005946019A00F03DFA10EB080061410024C3
:1023F00087EA115284EAE7731A4340D0009A62B325
:10240000019A012A4FEA075215DC001B61EB020119
:102410004FF0004202EA0752CDE90042001C41F5AC
:10242000801132462B4600F074FA03B0BDE8F08FFD
:1024300040462146F9E7001B61EB0201001C41F513
:10244000801300185B412018A2F5001747EB030129
:1024500040EAD570B6196D4111E06D084FEA3606B5
:1024600045EAC0754FEA0752001B61EB0201001CF0
:1024700041F5801149084FEA3000001951413246B8
:102480002B4603B0BDE8F04F00F034BA00980122AB
:1024900040000023D0EB020263EBE073009821467A
:1024A0004FEAE074B8EB000061EB0401E9E783F068
:1024B00000435BE781F0004158E72DE9FE4F81EAD8
:1024C000030404F0004421F0004100944FF0000B9D
:1024D00023F0004350EA01045ED052EA03045BD0CB
:1024E000C3F30A54C1F30A552C44A4F2F334019403
:1024F000A0FB0254C1F3130141F48011C3F3130391
:1025000043F4801301FB024400FB034E840A970A44
:1025100044EA815447EA8357A4FB076802958D0A71
:1025200005FB07854FEA932C04FB0C542705029DFD
:102530004FEA065847EA1637B5EB08056EEB070C6D
:10254000870E920E47EA811742EA8312A7FB020127
:10255000B6EB0B0164EB00042B0D43EA0C335E1861
:1025600044EB1C50DA465146E7FB0201C5F3130465
:102570004FEA0B3343EA14534FEA0432019C43EA17
:102580000603A4F10C040294009CCDE900B400F011
:10259000C0F903B0BDE8F08F00200146F9E72DE94E
:1025A000F04D81EA030404F0004B21F0004514468D
:1025B0004FF0000A23F0004150EA050220D054EA0F
:1025C00001021DD0C5F30A570246C5F31303C1F338
:1025D0001300C1F30A5640F4801543F48013A7EBAF
:1025E0000608101BD64608F2FD3873EB050002D32F
:1025F00008F1010801E092185B41B8F1000F03DA1D
:1026000000200146BDE8F08D00204FF48011064601
:1026100084460EE0171B73EB050705D3121B63EB13
:10262000050306434CEA010C49084FEA30009218B2
:102630005B4150EA0107EDD152EA030012D082EA71
:10264000040083EA0501084305D0101BAB4106D204
:102650000122002306E000224FF0004302E06FF069
:10266000010253101AEB06004CEB085110EB0A0064
:1026700041EB0B01BDE8F04D00F03CB90EB5C10FC8
:1026800080EAE0700844CA07002140F233438DE835
:102690000E000A460B4600F03CF903B000BD0EB533
:1026A00040F2334102910021CDE900110A460B4668
:1026B00000F02FF903B000BD0EB540F23342029294
:1026C0000022CDE90022134600F023F903B000BD3B
:1026D00020F00040C10DC0F3160040F400007F2937
:1026E00001DA00207047962903DCC1F19601C84049
:1026F000704796398840704770B5C1F30A5201F0AF
:1027000000450024C1F3130140F2FF3341F480116E
:102710009A4201DA002070BD40F233439A42A2F29D
:10272000334203DC524200F08CF800E090402C432E
:10273000F1D0404270BDC1F30A5210B5C1F313018C
:1027400040F2FF3341F480119A4201DA002010BDBB
:1027500040F233439A42A2F2334203DC524200F089
:1027600070F810BD904010BDC1F30A52C1F31301BF
:1027700040F2FF3341F480119A4202DA0020014610
:10278000704740F233439A42A2F2334202DC524293
:1027900000F057B800F046B830B5041E71F10004DF
:1027A00004DB4FF00044404264EB0101141E73F15E
:1027B000000405DB1C464FF00043524263EB040368
:1027C0008B4208BF824230BD30B5041E71F1000457
:1027D00004DB4FF00044404264EB0101141E73F12E
:1027E000000405DB1C464FF00043524263EB040338
:1027F000994208BF904230BD30B50B4601460020DB
:102800002022012409E021FA02F59D4205D303FAB2
:1028100002F5491B04FA02F52844151EA2F1010233
:10282000F1DC30BD202A04DB203A00FA02F100205E
:1028300070479140C2F1200320FA03F319439040FE
:102840007047202A04DB203A21FA02F00021704769
:1028500021FA02F3D040C2F1200291400843194608
:102860007047202A06DBCB17203A41FA02F043EAF0
:10287000E07306E041FA02F3D040C2F12002914039
:102880000843194670470029A8BF7047401C4900FB
:1028900008BF20F00100704710B4B0FA80FC00FAC5
:1028A0000CF050EA010404BF10BC704749B1CCF1F0
:1028B000200421FA04F411FA0CF118BF012121437C
:1028C0000843A3EB0C01CB1D4FEA00614FEA102037
:1028D00042BF002010BC704700EBC35010440029D9
:1028E000A4BF10BC7047401C490008BF20F0010085
:1028F00010BC704710B5141E73F1000408DA401CB8
:1029000041F1000192185B411A4301D120F001000E
:1029100010BD2DE9F04D92469B4611B1B1FA81F2FE
:1029200002E0B0FA80F220329046FFF77BFF0446C7
:102930000F4640EA0A0041EA0B0153465A46084353
:1029400013D0114653EA010019D0C8F14002504695
:10295000FFF777FF05460E46504659464246FFF7B9
:1029600061FF084305D0012004E020463946BDE858
:10297000F08D0020054346EAE0762C4337430A9861
:102980006305E40AA0EB08000022FD0A44EA47546C
:102990000A3002D500200146E9E701051019694116
:1029A000DDE9084500196941BDE8F04DA2E70000E6
:1029B0002DE9F041054621F000400C46284309D09E
:1029C000C4F30A5040F23341884205DD28462146CF
:1029D000BDE8F0812846FBE740F2FE31884210DC7A
:1029E0000CDB4FEA043040EA155050EA053105D0BF
:1029F000104804F0004101430020E9E700200146AF
:102A0000E6E7A0F233404642C6F14002284621469E
:102A1000FFF708FF07468846284621463246FFF75B
:102A200010FF43463A46FFF765FF3246BDE8F041E6
:102A3000FFF7F8BE0000F03F064C074D06E0E068E7
:102A400040F0010394E8070098471034AC42F6D3F5
:102A5000FFF73EFBC40B0101140C010170B58C188B
:102A600010F8015B15F0070301D110F8013B2A11A2
:102A700006D110F8012B03E010F8016B01F8016B8F
:102A80005B1EF9D12B0705D40023521E0DD401F88B
:102A9000013BFAE710F8013BCB1A921C03E013F854
:102AA000015B01F8015B521EF9D5A142D8D3002089
:102AB00070BD10B50CF0FCFABDE810400AF074B916
:102AC00010B50A49024601F1E40005F0B5FE0748D9
:102AD000E43090F829100229FBD00449BDE81040E9
:102AE000012201F1100000F006BB000048F2800056
:102AF0002DE9F04104462DED028B4800164F4FF4AE
:102B00007A713D68684390FBF1F07968401ABE68BD
:102B1000211A721B891A9FED118B002908DDFFF71E
:102B2000ADFD53EC182BFFF721FCFFF7E5FD08E0A6
:102B300007DAFFF7A3FD53EC182BFFF7B8FCFFF7FC
:102B4000DBFD211A7D603860FE60BC600846BDEC8C
:102B5000028BBDE8F0810000D84280000000000038
:102B60000000E03F10B51E480068002800D08047F4
:102B70001C4900200870811E1B4801601B494FF052
:102B8000007008601A4CD4F8C002800704D4F42204
:102B900018A11DA005F482F72A480168D4F8C402E0
:102BA00061F31D3040F00100C4F8C40205F4F9F0EF
:102BB00000214FF03040C1608161C1174161016265
:102BC00005F4B0F008484038016821F48001016044
:102BD0001D480068002802D0BDE81040004710BD25
:102BE000602480007046800044C500A080E200E0C0
:102BF00000E000A0727769705F736C6565705F6359
:102C00006F6D6D6F6E2E63004D43555F5355422DB2
:102C10003E424C455F44534C4545505F434F5252F2
:102C20005F454E2026204D43555F5355425F424C31
:102C3000455F44534C4545505F434F52525F4857A0
:102C40005F454E00542480006424800000214FF032
:102C50003040C1608161C1174161016206490220B3
:102C600004220A60BFF34F8FBFF36F8F0860BFF37A
:102C70004F8FBFF36F8F704780E100E0044902205F
:102C8000C1F800010860BFF34F8FBFF36F8F70472B
:102C900080E100E001490020487070473042800028
:102CA00001490020087070473042800030B589B07B
:102CB0001148D0E90212CDE90712D0E905230169D4
:102CC00001ACC0690EC40490012006900402059472
:102CD0000A4D05A9284606F03BF801222146284660
:102CE00016F408D70020029004200190039401A854
:102CF00005F02EFE09B030BD58F90001001001A00A
:102D000010B500220D49002802D0012802D003E0AE
:102D10004A6001E0012048604FF400508860CA60BA
:102D2000032008614FF0A0404861044805F090FB83
:102D3000BDE81040014805F0CBBB00002CF380003B
:102D40001FB50A48C1688068CDE9020101200190E1
:102D5000E0200090064C6946204605F0F9FF00226D
:102D6000E021204616F4C6D61FBD000048F9000138
:102D7000000001A010B509494FF020420A60084A3E
:102D80001268B2FBF0F0401E4860084606F00AFAEE
:102D9000BDE8104001481EF4E290000060F18000A0
:102DA0005841800010B50949074A0A60084A12686C
:102DB000B2FBF0F0401E4860084606F0F3F9BDE8AB
:102DC000104002481EF4CB90001000A06CF180006F
:102DD000584180007FB50546164880680290022061
:102DE00001900820009000240394134E6946304659
:102DF00005F0AEFF1021009103946946304605F0BE
:102E0000A7FF0F490D4A0A604D6003208860CC601F
:102E10000C614C61012088610C2019F41BD2084818
:102E200006F024FA064806F035FA054806F046FA98
:102E30007FBD000064FA0001000001A000C600A0F0
:102E400078F180000148406A15F452932CF3800019
:102E500070B52DED068BB0EE408AF0EE608A4D4DD8
:102E60002888401C80B228804B4E012817D096ED50
:102E7000000B51EC180B53EC102BFFF7A5FC02D202
:102E800086ED008B17E096ED020B51EC180B53EC1E
:102E9000102BFFF781FC0ED286ED028B0BE086ED46
:102EA000008B9FED3E0B51EC180B53EC102BFFF7F2
:102EB000FEFAC6E90201384C2888183CB0F5FA7FC2
:102EC00045D396ED021B96ED000B53EC112B51EC04
:102ED000100BFFF7ECFA9FED331B53EC112BFFF7B0
:102EE0005BFC10D096ED000B84ED000B96ED021B01
:102EF00084ED021B53EC112B51EC100BFFF7D7FAAA
:102F0000C4E9040121E096ED000B9FED28AB51ECE4
:102F1000100B53EC1A2BFFF729FA41EC190B84ED37
:102F2000009B96ED020B53EC1A2B51EC100BFFF7A4
:102F3000BEFA41EC100B84ED020B53EC102B51EC5C
:102F4000190BFFF7B4FAC4E904010020288094EDBE
:102F5000020B51EC180B53EC102BFFF7A8FA94ED71
:102F6000040B41EC180B53EC102B9FED120B51ECA2
:102F7000100BFFF714FB53EC182BFFF79EFAFFF72B
:102F8000DAFB84B2204601F025F8BDEC068B204622
:102F900070BD00002842800048F18000FCA9F1D2F9
:102FA0004D62503F00000000000000007B14AE475F
:102FB000E17A843F0000000000E06F4070B500231C
:102FC000002514E0B0F90060846834F8164021F858
:102FD00013400488641C24B20480B0F90460B44235
:102FE00000DB05805B1C1BB2C488641EC480B0F982
:102FF0000640002C01DD9342E4DB184670BD000062
:1030000010B5094903200C460B5C627A1A446272BF
:10301000401C0928F8DB0A220349002005F092F938
:103020000020607210BD000026F18000F0B5002085
:103030000D4A002102F1500302F1A00402F1F00553
:1030400002F5A07602F5C87742F8201043F8201068
:1030500044F8201045F8201046F8201047F82010BA
:10306000401C1428F0DBF0BDE0F6800070B50E4681
:1030700000250D4C216D491C216500F08BFA00F0F4
:1030800069FA00F003FA607838B100F017FB002805
:1030900000DD0546284600F0B1FE044800683060B7
:1030A0000348006870BD00003C42800000018100C0
:1030B00000F98000F0B50023002512E0B0F902709D
:1030C0008668CC5CF4554488641C24B24480B0F912
:1030D0000460B44200DB45805B1C1BB2C488641CE6
:1030E000C480B0F90640B0F90460B44201DA9342FA
:1030F000E4DB1846F0BDF0B50023002514E0B0F97C
:103100000270866831F8134026F817404488641C22
:1031100024B24480B0F90460B44200DB45805B1CFB
:103120001BB2C488641CC480B0F90640B0F90460C6
:10313000B44201DA9342E2DB1846F0BD70B50024D8
:1031400002EBD2735D10002303E050F82360344497
:103150005B1C9342F9DB94FBF2F250F82500801AD5
:10316000086070BDF0B5059D0C460A4407E050F8B4
:10317000216050F82470BE4200DD0C46491C8A4292
:10318000F5DC50F8240018602C60F0BDF0B5059D0A
:103190000C460A4407E050F8216050F82470BE4203
:1031A00000DA0C46491C8A42F5DC50F8240018600D
:1031B0002C60F0BD0148407870470000304280002C
:1031C00001480078704700003042800010B5FFF7DA
:1031D0006DFD002000F006F801490020886010BD58
:1031E0001842800010B5FFF78BFD0449BDE8104080
:1031F0006422A1F10C0000F072B8000064F28000BB
:1032000010B5FEF7F9FF00F05FF84FF4E13000F081
:1032100077F8BDE81040FFF7D9BF000030B5164978
:10322000FE250D70A5244C7001208870002000221E
:103230000B18DA70401C3228FADB81F835200E4872
:10324000363005704470022181702121C1700171F6
:103250004621417182716421C171027242729FEDF7
:10326000070B0A3080ED000B9FED061B80ED021B63
:1032700080ED040B30BD0000F0F08000CDCCCCCC54
:10328000CCCCFC3F000000000000000010B5002383
:10329000038043808280C3808160002103E08468D2
:1032A0006354491C09B29142F9DB10BD10B5FFF718
:1032B000BDFEFFF7B3FF0349BDE8104001F1300048
:1032C00002F044BCC041800010B54FF47A7420462F
:1032D000FFF750FD2046BDE81040FFF763BD10B575
:1032E0000023038043808280C3808160002104E04A
:1032F000846824F81130491C09B29142F8DB10BDF2
:1033000010B5044605496422A1F10C00FFF7BEFF89
:103310002046BDE81040FFF75DBD0000E4F18000ED
:10332000064A1188491C89B21180814205D30020C8
:1033300010808021024816F4D9937047A041800084
:10334000000001A010B5042014F494D30A4900220F
:1033500040B14868192801DB8A6001E0401C4860E0
:103360000A6010BD0868192802DB0120886001E0AE
:10337000401C08604A6010BD1842800010B5FFF77D
:1033800019FF00282FD00120FEF738FF06E0164A6B
:103390000123A2F10E01154805F0EEFC12480E388B
:1033A00000F06EFD0028F2D00F489FED110B103891
:1033B00053EC102B90ED040B51EC100BFFF777F84A
:1033C0009FED0D1B53EC112BFFF777F8FFF7B3F9C7
:1033D0000B4948710020FEF711FFFFF711FEBDE811
:1033E0001040FFF757BC10BDB84180002CF380009F
:1033F0008FC2F5285C8FEA3F26C50B6452BC5C4047
:1034000026F1800070B51D4800F03AFD1B4C58B104
:1034100000212088FFF72AFE2080012304F1080202
:103420002146174805F0A8FCFFF7CAFE002823D064
:10343000FA20FFF775FF6068012817DBFFF782FFAE
:103440001048114D0026006840B1287A40F08000F5
:10345000287294ED020BFFF7FBFC05E06420FFF7F8
:103460005FFFAE71EE712E72666001E0401C60601D
:10347000BDE87040FFF714BC70BD0000A84180009B
:103480002CF380002042800026F1800070B52DEDE5
:10349000068B2B4C216D6078002811D1224640F21A
:1034A000EE23D2E91D0599420DDA264909688142C9
:1034B00000DD61672348F0380068A84200DDA0679E
:1034C000BDEC068B70BD0026A66400EE100A2064D9
:1034D000B5EE009AB8EEC00ADFED1B9AB6EE08AA68
:1034E00020EE090A09EE8A0ABDEEC00A10EE100AA3
:1034F0002063FFF7C3F89FED158B53EC182BFEF7F5
:10350000DCFFFFF7F9F86063E66400EE105A6564CB
:10351000B8EEC00A20EE090A09EE8A0ABDEEC00A1A
:1035200010EE100AA063FFF7A9F853EC182BFEF772
:10353000C4FFFFF7E1F8E06301206070C0E700001E
:103540003C42800070F88000000000000000000095
:103550000000E03F10B50D48016801F500614FF42F
:103560000074224600F5C07000F0B9FC0849C86E2E
:10357000401CC866A04208DB01F180008268002A76
:1035800003D1012282600020C86610BD80F7800050
:103590003C4280002DE9F04100270024002540F244
:1035A0003511FFF7A5FA01463E4E706A012815DB7A
:1035B000B068C82807DA3C4A42F82010401CB060C6
:1035C0000020BDE8F081C822374800F079FC354979
:1035D000C8220C313448FFF7B1FDF7681422394690
:1035E000324800F07CFC3148026B016880690A4473
:1035F000D6E90513C3EB4103404203EB40001044FE
:103600003061B1617061411128481422503000F0DE
:1036100066FC2648326A503001681144D0F8802098
:10362000006C891AA0EB6111F16131621F4814220C
:10363000A03000F054FC1D48A030D0E9002101EB7F
:103640004201C2680069891A404201EB40011748F3
:103650001422F03000F043FC1448F0300168494374
:103660001422503000F03BFC114850F824100D4457
:10367000641C1E2CF9DB2846FFF700F89FED0D1B9C
:1036800053EC112BFEF78BFFFFF736F80146084885
:103690001422503000F023FC706A401C706201203C
:1036A0008FE700003C428000BCF38000E0F6800021
:1036B00020F880000000000000003E402DE9F04F9F
:1036C0002DED0C8B87B0002000260196FC49FD4DA6
:1036D0000F68AF62F0390968E96206919FEDFACB95
:1036E0009FEDFBBB2A462B6B516D049132319FED50
:1036F000FA8B9FEDFB9B0591146D9F4228DB2946B9
:10370000059AD1E912ABD1E9108994427ED9049986
:10371000B4EE00DA5A31F6EE0CDA8C4277D805F1C5
:103720008003DE60DFF898C3ACF1500CDA685CF817
:103730002010914200D9D960401C0A28F6DDE149E9
:103740008031C86803900969B0EB510F01D82E7120
:10375000DBE000EE107AB8EEC00A60EE0D0A00EE73
:10376000108AB8EEC00A40EE2D0ABDEEE00A10EE57
:10377000100A2864A0EB0A00FEF780FF53EC182B18
:10378000FEF79BFE41EC1A0B5046FEF777FF53EC19
:103790001A2BFEF7EBFDFEF7AFFF2863FEF76EFF77
:1037A00053EC192BFEF789FEFEF7A6FF6863069817
:1037B00000EE909A00EE100AF8EEE00AB8EEC00AA9
:1037C00020EE0D0A00EEAD0ABDEEC00A10EE100AA2
:1037D0006864A0EB0B00FEF751FF53EC182BFEF7CB
:1037E0006CFE41EC1A0B5846FEF748FF53EC1A2BBF
:1037F000FEF7BCFDFEF780FFA863FEF73FFF53EC2A
:10380000192BFEF75AFEFEF777FF01E09DE007E077
:10381000E863AC480399803001610120287174E0AD
:10382000A8498031CE60DFF898C2ACF1500CA54BAE
:103830005CF820108033DA68914200D9D960401CCE
:103840000A28F4DD00EE107A00EE908AB8EEC00A85
:10385000F8EEE00A20EE0D0A00EEAD0ABDEEC00A59
:1038600010EE100A2864A0EB0A00FEF707FF53ECE5
:10387000182BFEF722FE41EC1A0B5046FEF7FEFE17
:1038800053EC1A2BFEF772FDFEF736FF2863FEF7A6
:10389000F5FE53EC192BFEF710FEFEF72DFF6863C3
:1038A000069800EE100AB8EEC00A60EE0D0A00EEAF
:1038B000109AB8EEC00A40EE2D0ABDEEE00A10EEF6
:1038C000100A6864A0EB0B00FEF7D8FE53EC182B2F
:1038D000FEF7F3FD41EC1A0B5846FEF7CFFE53EC12
:1038E0001A2BFEF743FDFEF707FFA863FEF7C6FE9F
:1038F00053EC192BFEF7E1FDFEF7FEFEE86371487D
:103900008030C1680161012028716E482979426DBB
:10391000006D0029A0EB02087DD04FF0010B85F867
:1039200002B0684F80377E61CDF804806C656448D2
:10393000042201A9503000F0ADFA686E401C6866A0
:10394000052876DB0198786175E05046FEF796FE13
:1039500053EC1C2BFEF7B1FD41EC1A0B3846FEF779
:103960008DFE53EC1B2BFEF7A8FD53EC1A2BFEF734
:10397000FDFCFEF7C1FE0446A864A8EB0400FEF7B8
:103980007DFE53EC182BFEF798FD41EC1A0B2046F8
:10399000FEF774FE53EC1A2BFEF7E8FCFEF7ACFEC4
:1039A0002863FEF76BFE53EC192BFEF786FDFEF73E
:1039B000A3FE68635846FEF761FE53EC1C2BFEF72E
:1039C0007CFD41EC1A0B0698FEF758FE53EC1B2BBE
:1039D000FEF773FD53EC1A2BFEF7C8FCFEF78CFEC6
:1039E0000446E864A9EB0400FEF748FE53EC182BEC
:1039F000FEF763FD41EC180B2046FEF73FFE53EC4B
:103A0000182BFEF7B3FCFEF777FEA863FEF736FE31
:103A100053EC192B01E0A2E00BE0FEF74EFDFEF7A0
:103A20006BFEE8632E71002007B0BDEC0C8BBDE887
:103A3000F08FC7F81480082241462B4800F040FA66
:103A40007869FEF71BFE9FED291B044653EC112BF2
:103A50000291FEF732FDFEF74FFE8246A8650299FD
:103A60009FED241B41EC104B53EC112B51EC100B30
:103A7000FEF723FDFEF740FE8146E86502999FEDC3
:103A80001F1B41EC104B53EC112B51EC100BFEF7AC
:103A900014FDFEF731FE2866D04535DBC84533DC22
:103AA000BE610849064804229431703000F0F2F9F2
:103AB000A86E401CA866052824DB7869B86123E05D
:103AC00070F880003C428000000000000000EC3FE5
:103AD000000000000000C03F000000000000D03FD8
:103AE000000000000000E03F00018100713D0AD7A6
:103AF000A370ED3F8FC2F5285C8FF23F8FC2F5288F
:103B00005C8FFA3FC7F818803868401C3860297805
:103B10006971D7E9052082420ED185F800B040B125
:103B200043F6982191FBF0F0E867AD49020A8A71EB
:103B3000C87185F803B04BE12E7049B1286B00EBDA
:103B4000D07040102863A86B00EBD0704010A863C1
:103B5000A86E0528EFDB7868401C786038E1286E95
:103B600080453ED905988442FBD9686BDFF87482A2
:103B7000874236DDDFF87092C9F80C600020A8F1AA
:103B80005003D9F80C2053F82010914201D9C9F8FC
:103B90000C10401C0A28F4DDD9E90301B0EB510FE9
:103BA00020D20498FEF77BFD8A4607469FED8F1BC7
:103BB00053EC112BFEF781FC41EC100B4AEC117B0E
:103BC00053EC102B51EC110BFEF7D0FB41EC1A0B10
:103BD0002046FEF764FD53EC1A2BFEF7DDFD01D203
:103BE0002E7178E0D8F80040AC627E48F038076863
:103BF000EF62286CFEF742FD9FED7EDB53EC1D2B40
:103C0000FEF75BFC41EC1A0B2046FEF737FD53EC48
:103C1000182BFEF752FC53EC1A2BFEF7A7FBFEF70E
:103C20006BFD04462864686CFEF728FD53EC1D2BE1
:103C3000FEF743FC41EC1A0B3846FEF71FFD53EC30
:103C4000182BFEF73AFC53EC1A2BFEF78FFBFEF70E
:103C500053FD07466864D5F84880A4EB0800FEF7DA
:103C60000DFD53EC182BFEF728FC41EC1A0B4046D7
:103C7000FEF704FD53EC1A2BFEF778FBFEF73CFD34
:103C80002863FEF7FBFC53EC192BFEF716FCFEF73E
:103C900033FD6863D9F80C00C9F81000EC6C381BD0
:103CA000FEF7ECFC53EC182BFEF707FC41EC1A0B6B
:103CB0002046FEF7E3FC53EC1A2BFEF757FBFEF70A
:103CC0001BFDA863FEF7DAFC53EC192BFEF7F5FB9E
:103CD000FEF712FDE8632879002879D1414804688D
:103CE000286B844205DA3F48A96BF03800688842A7
:103CF0006EDBAC62A86CFEF7C1FC53EC1C2BFEF72C
:103D0000DCFB41EC1A0B2046FEF7B8FC53EC1B2BF6
:103D1000FEF7D3FB53EC1A2BFEF728FBFEF7ECFC67
:103D20000446A864286C001BFEF7A8FC53EC182B73
:103D3000FEF7C3FB41EC1A0B2046FEF79FFC53EC49
:103D40001A2BFEF713FBFEF7D7FC2863FEF796FC51
:103D500053EC192BFEF7B1FBFEF7CEFC686321484C
:103D6000F0380468EC62E86CFEF788FC53EC1C2B1E
:103D7000FEF7A3FB41EC1A0B2046FEF77FFC53EC49
:103D80001B2BFEF79AFB53EC1A2BFEF7EFFAFEF70C
:103D9000B3FC0446E864686C001BFEF76FFC53EC50
:103DA000182BFEF78AFB41EC180B2046FEF766FC49
:103DB00053EC182BFEF7DAFAFEF79EFCA863FEF729
:103DC0005DFC53EC192BFEF778FBFEF795FCE863DE
:103DD000287910B12E71286D26E6002024E6000017
:103DE00026F1800070F88000BC4280000AD7A370E2
:103DF0003D0AD73F000000000000E83F2DE9F041F8
:103E000086B00025059504950395029500282EDDC2
:103E1000184F396F491C3967322928DD02A80090F4
:103E200003AB322219391448FFF79CF902990C466A
:103E30000DF1100805AB2522A4F125010E48CDF89F
:103E40000080FFF7A3F9049E05AB252221460A480E
:103E5000CDF80080FFF79AF90498811B08220748E3
:103E600000F02EF83D67012006B0BDE8F08100208B
:103E7000FAE700003C42800000F980002001810048
:103E800010B5014601220248FFF798F8C0B210BDF4
:103E900058F2800070B500230024561E06E05D1C19
:103EA00050F8255040F823502C445B1CB342F6DBFD
:103EB0000B6840F82630181990FBF2F0086070BDCE
:103EC00010B50023521E05E05C1C50F8244040F859
:103ED00023405B1C9342F7DB40F8221010BD521EBA
:103EE00005E0531E50F8233040F82230521E002ABD
:103EF000F7DC0160704770470249096801F007016B
:103F00000170704704C500A030B4062821D21249C0
:103F10000A6802F00702824212D00A680F4B1A4068
:103F20000F4C22430A6000BF00BF00BF00BF0A68F9
:103F30001A400C4B024333F8203042EA83420A60B5
:103F40000849183951F820000749086030BC75F459
:103F5000519030BC7047000004C500A0F8FFE3FF9B
:103F60000500080030F9000158418000044800684D
:103F7000044900F0070051F8200003490860704729
:103F800004C500A018F900015841800006480168E6
:103F900041F4700101600548006800F48070002859
:103FA00001D10AF053BA704788ED00E078C500A04F
:103FB00001481DF43690000060F1800001481DF4B6
:103FC000309000006CF1800001481DF44593000022
:103FD00078F1800070B50E4D95F83510014485F8E4
:103FE00035100C4C030A616805EB4102D370107167
:103FF000182909DB36222946002004F0A3F9002005
:10400000606085F8350070BD491C616070BD0000BE
:10401000F0F08000284280000FB4054B10B503A9D2
:10402000044A029800F054F910BC5DF814FB00003B
:1040300041670001804480000FB41CB50246002097
:1040400007AC00290BD0491ECDE90021054B6A467B
:104050002146069800F03CF9009A002111701CBC22
:104060005DF814FBFF4900010FB4084B10B504A91B
:1040700002AA039800F02CF9044602A9002000F0DF
:10408000C9FC204610BC5DF814FB0000154A000175
:104090007CB5044600201D46164600290BD0491E5B
:1040A000CDE90041044B6A462946304600F010F93C
:1040B000009A002111707CBDFF490001002809DB36
:1040C00000F01F02012191404009800000F1E02032
:1040D000C0F88012704700280DDB00F01F0201219C
:1040E00091404009800000F1E020C0F88011BFF34A
:1040F0004F8FBFF36F8F7047002809DB00F01F025E
:10410000012191404009800000F1E020C0F8001139
:104110007047002804DB00F1E02090F800047047AD
:1041200000F00F0000F1E02090F8140D704702E05D
:1041300008C8121F08C1002AFAD170477047002032
:1041400001E001C1121F002AFBD170472DE9FF5F7A
:1041500082B00021DDE90430020DDDF840B00343F8
:1041600018D044F61050A2F2FF32424315141198B1
:1041700001281FD0A5EB0B00401C5FEA000A4FF09E
:1041800000064E4FDFF83891B046504615D5CAF1BB
:10419000000413E0119801244AA3012801D16FEA19
:1041A0000B010298119AC0E90031C0E9024206B041
:1041B000BDE8F09FCBF10000DFE704460021404A54
:1041C000491842EB0450CDE9001012E0E00707D097
:1041D00032463B4640464946FEF76FF980468946DF
:1041E00032463B4610461946FEF767F906460F462B
:1041F0006410002CEAD1DDE90401DDE90023BAF105
:10420000000F06DAFEF759F942464B46FEF755F91C
:1042100005E0FEF7C4F942464B46FEF7C0F90446F6
:104220000E460022284BFEF7CFFA03D84FF0FF309E
:10423000014607E00022254B20463146FEF796F85E
:10424000FEF792FA102409E0002C0ADB0A22002370
:10425000FDF758FF039B30321A55641E50EA0102E5
:10426000F2D1641C039AC4F111031444119A012A77
:1042700003D0012208430DD10AE0084304D00020F6
:104280004FF0110B119072E7A3EB0B056D1E0DE0C3
:104290005B4504DD4FF0000205F1010504E003DA9F
:1042A0004FF00002A5F10105002AECD00298119907
:1042B000C0E90231C0E9004579E700000000144080
:1042C0000000F03F300000000000F0430000E03F3D
:1042D0002DE9FF4F95B09B468946064600250FE223
:1042E000252877D100242746F84A0121059400E0CB
:1042F000044316F8013F203B01FA03F01042F7D1C6
:1043000030782A2811D06FF02F033078A0F13002D6
:10431000092A16D8059A44F0020402EB820203EB44
:1043200042021044761C0590EFE759F8042B0592E1
:10433000002A03DA504244F40054059044F0020489
:10434000761C30782E2816D116F8010F44F004049C
:104350002A280DD06FF02F023078A0F13003092BFE
:1043600009D807EB870302EB4303C718761CF3E772
:1043700059F8047B761C30786C280FD006DC4C286A
:1043800017D068280DD06A2814D104E0742810D002
:104390007A280FD10DE044F400140AE044F48014AC
:1043A00001E044F440147278824202D104F5801492
:1043B000761C761C307866280BD013DC582877D012
:1043C00009DC002875D04528F6D04628F4D04728C7
:1043D0001AD19DE118E0632835D0642879D065288A
:1043E00012D195E1702873D008DC6728F1D06928D4
:1043F0006FD06E280DD06F2806D1B5E073282CD071
:10440000752875D0782874D05A46179990476D1C36
:1044100075E1C4F30250022809D003280DD0D9F861
:10442000001004280DD00D6009F1040967E1D9F8E6
:104430000010EA17C1E90052F6E7D9F800100D8024
:10444000F2E70D70F0E719F8041B8DF8001000205A
:104450008DF80100EA46012003E059F804AB4FF063
:10446000FF3061074FF0000102D40DE008F10101B7
:104470008846B9420FDA8045F8DB1AF8081000299F
:10448000F4D108E008F1010188468142FADB1AF80C
:1044900008100029F6D105985B46A0EB08072146D5
:1044A0003846179A00F094FA284400EB080507E014
:1044B0004DE029E10DE01AF8010B5A461799904793
:1044C000B8F10108F7D25B4621463846179A13E146
:1044D00042E00A220092C4F302524FF0000A022A7C
:1044E00008D059F804CB032A4FEAEC710AD00DE04A
:1044F00029E02AE009F1070121F00702F2E802C1F0
:10450000914609E00FFA8CFC4FEAEC71042A03D1C2
:104510004FFA8CFC4FEAEC71002907DA0A460021B9
:10452000DCF1000C61EB02012D2202E0220504D532
:104530002B228DF80420012203E0E20701D0202283
:10454000F7E7904659E00A2102E010220DE0102121
:104550004FF0000A00910BE010224FF0000A44F0E7
:1045600004040827009203E008224FF0000A00929A
:10457000C4F30252022A05D059F804CB0021032AC1
:1045800008D009E009F1070121F00702F2E802C1B1
:10459000914605E01FFA8CFC042A01D10CF0FF0CB7
:1045A0004FF00008220728D5702806D0009B83F022
:1045B000100353EA0A0305D00EE040228DF80420D0
:1045C000012208E05CEA010206D030228DF80420C6
:1045D0008DF8050002229046009B83F0080353EA01
:1045E0000A030AD15CEA010201D1620705D5302233
:1045F0008DF804204FF001087F1E582804D034A005
:1046000003900EA802900DE036A0F9E753466046ED
:10461000009AFDF777FD84460398825C0298401E5D
:10462000029002705CEA0100F0D1029806A9081A13
:1046300000F1200A600702D524F4803400E001274D
:10464000574502DDA7EB0A0000E0002000EB0A015D
:10465000009005984144401A0590E00306D45B465B
:104660002146179A059800F0B3F90544002706E0A3
:1046700001A85A46C05D179990476D1C7F1C47459D
:10468000F6DBE0030CD55B462146179A059800F04F
:104690009FF9054404E030205A46179990476D1C55
:1046A0000099481E00900029F5DC08E00298029964
:1046B0005A460078491C0291179990476D1CBAF12F
:1046C0000001AAF1010AF1DC65E1000009280100FE
:1046D0003031323334353637383961626364656678
:1046E000000000003031323334353637383941423A
:1046F000434445460000000000F058F90544761C8C
:10470000307800287FF4ECAD19B02846BDE8F08F72
:10471000620700D4062709F1070222F0070CFCE823
:104720000223E14603F000485FEA080C02D00FF2D2
:10473000702C0DE05FEA045C02D50FF2682C07E0F4
:104740005FEAC47C02D00FF2602C01E0AFF2700C83
:104750004FF0FF3823F00043CDF850C065280CD04F
:1047600006DC452809D046281DD047283DD13DE02C
:10477000662818D067287ED138E00021112F01DB90
:10478000112000E0781CCDE9000106A90EA8FFF772
:10479000DDFCDDE90F010E9A03910021009207F183
:1047A000010A04914DE04FF000400097CDE901105F
:1047B00006A90EA8FFF7CAFCDDE90F0203920E9BC3
:1047C00011990022DDF80CA00093049211B9791C14
:1047D00000EB010AB7EB0A0004D4C0F1FF3007F187
:1047E000010A0490AAEB0700019044E0012F00DACF
:1047F00001270021112F01DD112000E03846CDE90D
:10480000000106A90EA8FFF7A1FCDDE90F010E9A31
:104810000391002104910092BA4621070CD4039918
:10482000514500DA8A46BAF1010F05DD009AAAF176
:104830000101515C302908D0B84202DA10F1040FAE
:1048400006DA0121CDE9011015E0AAF10101E9E73D
:10485000002805DC049901440491AAEB000102E060
:10486000411C514500DD8A460499401A401C0190C4
:104870004FF000400290200704D40198504501DB1E
:10488000CDF8048000208DF84F0002980DF14F07FD
:10489000B0F1004F25D02B200E9002984FF0020867
:1048A00000280CDA404202902D200E9007E00A21E9
:1048B0000298FDF7A1FF3031029007F8011DB8F111
:1048C0000001A8F10108F2DC02980028EFD1791E5E
:1048D0000E980870307800F0200040F0450007F88E
:1048E000020D12A8C01B00F107081498007800B14F
:1048F000012000EB0A01019801EBE07105984144A9
:10490000401A401E0590E00306D45B462146179AE4
:10491000059800F05DF805441498007818B15A46DF
:10492000179990476D1CE00324D55B462146179AE2
:10493000059800F04DF805441CE00498002807DBBA
:10494000DDE90301884203DD0098405C179901E02E
:10495000179930205A469047049805F10105401CEC
:1049600004900198401E019004D12E205A461799B8
:1049700090476D1CBAF10001AAF1010ADDDC05E0E7
:1049800017F8010B5A46179990476D1CB8F10001B2
:10499000A8F10108F4DC5B462146179A0598ABE6BE
:1049A0002D0000002B000000200000002DE9F04148
:1049B000044600251E461746880404D405E03946FF
:1049C0002020B0476D1C641EF9D52846BDE8F08153
:1049D0002DE9F041044600251E469046C80301D546
:1049E000302700E02027880404D505E041463846FA
:1049F000B0476D1C641EF9D52846BDE8F0814A68B1
:104A0000002A06D00A68531C0B6010704868401ECC
:104A1000486070470A68531C0B60107070470000B4
:104A20002DE9F05F0746894693464FEA5B04A246AC
:104A30004D465F4EDFF87C81EFF31080012181F35A
:104A40001088D8F8A41221F02001C8F8A41280F32D
:104A50001088EFF31080012181F31088D8F8A0129C
:104A600021F02001C8F8A01280F31088306820F0EF
:104A700080403060504830603F20D8F8001160F32B
:104A80000501C8F80011306820F4601040EAC74002
:104A90003060306820F4E02040EA07403060052FA5
:104AA00003D1306840F400403060062F03D13068F5
:104AB00040F480403060306840F40050306030682E
:104AC00020F060503060306820F00F0040F00300AC
:104AD0003060EFF31080012181F31088344A3832BE
:104AE000116821F0E04141F08041116080F31088AD
:104AF000306840F08040306001E0D8F80000D8F81D
:104B00000401C0F300200028F7D1EFF31080012149
:104B100081F31088116841F00041116080F3108822
:104B200034E000204FF47A711AE0884217D93068D7
:104B300020F080403060306840F0004030603068E5
:104B400020F00040306005F07DFD1C480168491CE4
:104B5000016054464D46052077F451D06CE7401C67
:104B6000D8F80421C2F30022002ADED0D8F80401CC
:104B700000F07F01A14200D92146002003E0D8F8CF
:104B8000002004C5401C8842F9D3641A002CC8D107
:104B90005FEACB7008D0D8F80401C0F300200028E9
:104BA000F9D0D8F800002880BDE8F05F05F04ABDD4
:104BB00008C500A000E000A00A07080764478000BD
:104BC00070B5C46AE069C00707D04FF47A71204617
:104BD00003F466F798B103F06BFD0025256205F03C
:104BE00021FD0B48057094F8290002280FD10120FF
:104BF00084F829002046BDE8704003F027BC054832
:104C00000068D4E90621491E22F81100E5E770BDCD
:104C1000E044800000E000A02DE9F04107460E4688
:104C20004FF000080024274D0BE004EBC40005EB17
:104C30008000801C07223946FDF7CCFA40B1641C85
:104C4000E4B22878A042F0D8B8F1000F18D102E001
:104C50004FF00108F8E728780A21B0FBF1F201FBD8
:104C600012040A2801D2401C287004EBC40105EB91
:104C700081003968C0F80210B988C180B979017221
:104C80002B7811A21021002003F40CF730780007D4
:104C90000BD504EBC40005EB800006F14601BDE82E
:104CA000F0410A301C22FDF771BA04EBC40005EB99
:104CB000800006F12A01BDE8F0410A301C22FDF710
:104CC00065BA000038048100523A313A61646420C8
:104CD0006C746B206974656D2C206E756D203D20A1
:104CE00025640A002DE9F04104460D46154F164E85
:104CF0000022134620462946FDF74EFD0FD83068A6
:104D0000C0F34120012808D0786C401C78643068DA
:104D100020F4C06040F400703060BDE8F0810022F3
:104D20000A4B20462946FDF74FFDF6D8306810F4AF
:104D3000C06FF2D0386C401C3864306820F4C0601A
:104D40003060EAE7DC4480000CC500A0000024408D
:104D50007047000010B586B00949002061F48ED379
:104D60000446002C09D01422064901A8FDF70EFACA
:104D7000ADF8084001A800F007F806B010BD00002B
:104D80002442800018FA000110B5ADF5047D0446F8
:104D90004FF4007104A8FDF712FA207810B1012831
:104DA00019D01DE000211748A28830F831309A420E
:104DB00007D100EBC10014A1436804A8FFF754F920
:104DC0000EE02B2902D0491CC9B2EEE714A104A8B9
:104DD000FFF74AF904E01DA104A86268FFF744F94F
:104DE00004A921A22069CDE901210090D4E9022380
:104DF0001EA1002000F0CAF800F0B4F80DF5047D03
:104E000010BD0000184380004572726F7220636FFE
:104E10006465203078253034583A2025730000002E
:104E20004572726F7220636F64652030782530346C
:104E3000583A204E6F20666F756E6420696E666FFB
:104E4000726D6174696F6E2E000000002825732951
:104E5000206973206E6F742065737461626C69736E
:104E60006865642E00000000257300006170705FAB
:104E70006572726F722E6300002902D001A0FFF7E5
:104E8000CBB87047416476657274696E672073743D
:104E90006172746564206661696C656428305825A8
:104EA000303258292E0000003EB50546144609A0B0
:104EB000E27AA17A237BCDE900320291637BA27B67
:104EC000E17BFFF7A9F803B021462846BDE8304052
:104ED000FFF73EBF436F6E6E65637465642077694C
:104EE00074682074686520706565722025303258BA
:104EF0003A253032583A253032583A253032583A2D
:104F0000253032583A253032582E0000012161F404
:104F10004B96000070B505461446214604A0FFF7E5
:104F20007BF821462846BDE87040FFF713BF00001C
:104F3000446973636F6E6E656374656420283078AE
:104F400025303258292E000070470000002806D076
:104F5000002904D0024AD269002A00D010477047C5
:104F6000700281000248006A002800D000477047A4
:104F700070028100044A1044807D084201D0012063
:104F80007047002070470000700281002DE9FE4F3D
:104F9000DDF830B006469246994600240027019776
:104FA00002975A480178B14202D2807E00287DD112
:104FB0000DF13808CDF80080EFF311850220FFF7DE
:104FC000A8F8014652480068C0F30220401C0122A4
:104FD00082408818C0B280F3118801213046FFF763
:104FE000C9FF38B14B484C4950F82620204600F004
:104FF000A5F804461C213046FFF7BCFF00285ED010
:1050000046A24549204600F099F8204484B2042184
:105010003046FFF7AFFFF8B152463F49204600F057
:105020008DF8204484B208213046FFF7A3FF38B141
:105030003BA23949204600F081F8204484B20BE0BD
:1050400010213046FFF796FF30B136A23249204694
:1050500000F074F8204484B208213046FFF78AFF3C
:1050600090B14A462C49204600F068F8204484B2AA
:1050700010213046FFF77EFF30B12BA22649204693
:1050800000F05CF8204484B210213046FFF772FF34
:1050900070B15B4626A2052101A8FEF7CDFF01AA4B
:1050A0001D49204600F04AF8204400E02BE084B27D
:1050B00020A21949204600F041F8204484B2164845
:1050C000C4F58071204443460D9AFEF7E1FF009736
:1050D0004FF48071002804DB2044884201DC86B252
:1050E00000E00E46B01C884200D9FE2612A20A49F2
:1050F000304600F023F8304481B20748FFF726FF1E
:10510000E8B280F31188BDE8FE8F000070028100D4
:105110000CED00E070448000700181002800000068
:10512000200000003A000000204C696E653A000043
:10513000256C6400292000000D0A000030B50546EA
:10514000002000290CD0002A0AD006E02B18FF2BE3
:1051500006D8CC54521C401C80B21478002CF5D1D7
:1051600030BD00002DE9F04106460C46174604F11B
:105170000805204670F420D3C3B21B48E1184268EA
:10518000914202DD0320BDE8F0811849184A006809
:1051900009681268891A081A001FE91881421CD987
:1051A0004FF4004513A22946002003F47BF400F0DD
:1051B000AFFD30B118A22946002003F473F4082093
:1051C000E1E71DA22946002003F46CF43A4621468B
:1051D0003046BDE8F0410AF0E7BA3A46214630468B
:1051E000BDE8F0410AF0E0BAD8328000D023800058
:1051F000CC238000523A353A4E56445320617265B2
:1052000061206973206265696E6720636F6D7061EC
:10521000637465642E0D0A00523A353A436F6D701F
:10522000616374696E67204E564453206661696CF1
:1052300065640D0A00000000523A353A436F6D7004
:10524000616374696E67204E5644532073756363BF
:1052500065737366756C0D0A000000007CB50D4621
:10526000002200920192694603F41EF4044634BB06
:105270004FF42051684603F419F4B8B942F601011D
:10528000684603F413F488B942F60301684603F450
:105290000DF458B942F60201684603F407F428B940
:1052A0004FF42451684603F401F408B1062406E0E3
:1052B0000098C5F30B018088084300998880204638
:1052C0007CBD00002DE9F04105460C46FF26217A01
:1052D0001E2905D022480279521E52B200683AE0D7
:1052E00004F10801284603F4E3F3064635E010F81C
:1052F00032308B422DD11B4E56F82500406F30B313
:1053000000273B4618A24021002003F4CBF30620DF
:1053100000EB05202BF42ED0C00605D5002717A2E0
:105320004021002003F4BEF321460C3956F8250035
:10533000743003F4BFF30020A08001266FB115A2E2
:10534000402103F4AFF3284603F4B6F305E0012748
:10535000D7E7521E52B2002AC9DA3046BDE8F081C2
:105360007C058000C40E8000523A333A657865634C
:105370007574653D307825780A000000523A333A5A
:10538000636F6E6E656374206E6F742063666D0A62
:1053900000000000523A333A7374617274206578E9
:1053A00065637574650A00000348024901600D21B8
:1053B0004160704740FC00017C0580002DE9FF5FE3
:1053C00081460F460024A246CDF808A0CDF80CA0D7
:1053D000584850F82900603003F470F380463D1FB0
:1053E00079882888544BCDE9001054A24021002030
:1053F00003F458F32888E8BB48460FF40FD6401E44
:105400002880002611E007EB460002AB82880021CD
:10541000484603F455F3C4B2CDF808A0CDF80CA06B
:105420000CB1B0463BE0761CB6B27888B042EAD800
:1054300035E007EB48006B46818801AA484603F433
:1054400041F3C4B23CBBBDF804002988884200D3B4
:10545000084686B2022106F108002AF435D58346B3
:10546000ABF8046032460BF106000099FCF78EFEA3
:10547000304800E013E050F829005946603003F44A
:1054800019F3484603F420F32888801B288008F18C
:1054900001081FFA88F8CDF808A0CDF80CA078888C
:1054A000404503D9288808B1002CC2D044BB4846E7
:1054B0000FF4B4D52988401A401E86B20025062074
:1054C00000EB09230F220421484600962DF4ACD0AE
:1054D0008246AAF80260174850F82900066E0AE0D2
:1054E0000AEB0500B288001DB11DFCF74FFEB08825
:1054F000284485B23668002EF2D1504603F4E6F215
:105500004CB1062C07D007EB480039788288234637
:10551000484603F4DDF2084B14A240210020009419
:1055200003F4C0F2062C03D0002004B0BDE8F09FC5
:105530000120FAE7C40E8000A8FC0001523A333A79
:105540005B25735D20656E7465722C206E625F68EA
:10555000616E646C653D307825782C2072655F6CD7
:10556000656E3D307825780A00000000523A333AE3
:105570005B25735D20657869742C20737461747584
:10558000733D307825780A001FB50F4890F8020166
:10559000002818D068464EF4CDD6DDE900010B4C4A
:1055A000CDE90201E1680844094920F070404860F3
:1055B00008464FF455D1607818B1BDE81F4008F097
:1055C00033BE08F04DFE1FBDC01A80003C4680006F
:1055D000B41A800010B506F0C7FBBDE8104001F01A
:1055E000FDBF00002DE9F0410546884628466AF4D3
:1055F000A7D5C0B22449097888420DD200EB4000FB
:10560000213040F400404246AC2107F007FC04463C
:10561000200032D0012430E06AF4D6D5C7B207EBBF
:10562000470606F1200040F400402A46072107F013
:10563000F5FB10B10120BDE8F081384676F414D7AF
:1056400006F1210040F400404246AC2107F0E6FBA1
:105650000446200001D00120EDE7223646F4004048
:1056600071F4D4D70949C7EBC70009680844296811
:105670000160A9888180A97981711CB941462846B9
:10568000FFF7CAFA2046D6E7382380003C23800083
:1056900010B508F03FFE08F06BFE08F0D9FD08F0E9
:1056A00067F909F0E9FD00F0B1F908F075FE00F0C6
:1056B00001F9BDE8104000F0E3B808F0DDB810B51E
:1056C00005F020FD06F0F8FB05F02CFD06F020F9B2
:1056D00004F0E8FEFFF768FE02F08CFA08F0E2FE44
:1056E000BDE8104009F068BA10B5FFF7E6FF0549BC
:1056F00003480860BDE81040034876F42791000095
:1057000017B8800474C500A0008793030A2805D247
:10571000034A002152F8200080F88F1070470000E3
:10572000C40E800070B504460D46204608F07EFE8B
:10573000002805D129462046BDE8704063F43A941C
:1057400070BD70B504460D46204608F06FFE002877
:1057500004D12946204664F4D9D480B270BD70B516
:1057600004460D46204608F061FE002805D1294672
:105770002046BDE8704064F40F9670BD70B50446D5
:105780000D46204608F052FE002804D12946204646
:1057900065F4EED080B270BD00B585B003A860F4AA
:1057A00007D49DF80D109DF80E20CDE900219DF83D
:1057B0000C0002909DF80F309DF810209DF81110FC
:1057C00006A0FEF729FC09F05FF801F0B3FC0E49D2
:1057D000002060F453D605B000BD0000C9E8B1B8A0
:1057E000B5D8D6B7A3BA20253032583A253032582A
:1057F0003A253032583A253032583A253032583A24
:10580000253032582E0D0A002442800010B506487B
:105810000068002800D08047FFF74CDF08B1012066
:1058200010BD002010BD00007846800010B540F487
:10583000404071F4EBD610BD10B540F4404007F085
:10584000EDFA10BD044901600449416004498160DA
:105850000449C1607047000041C2060015C206003D
:10586000395800012D58000110B506F0CFFC07F0A3
:10587000C1F907F0E1F8BDE8104002F051B80000AE
:1058800010B51F21094807F017FF06210748F83017
:1058900007F00CFF0221064807F002FFFFF70FFF99
:1058A000FFF7E2FFFFF796FE10BD000020408000EA
:1058B00048418000044903480860054903480860DE
:1058C00070470000E16C00010C228000E96E0001CD
:1058D0001822800070B50026150A0E4805EB450217
:1058E00000EB0214098821800120A0702846FFF7F0
:1058F0000DFF00206AF4C4D40748016829B10B6881
:105900001BB122880021284698476AF4EFD430461C
:1059100070BD0000D42E8000B82280003EB5002467
:105920001D0A0A78122A02D0132A04D006E00020A9
:105930008DF8000002E001208DF800008888ADF8A5
:1059400004004888ADF80200891D029100206AF425
:1059500097D40B48016829B18A691AB1694628466B
:10596000904708E09DF80000012804D1BDF804101C
:105970002846FFF7D7FE6AF4B9D420463EBD0000A2
:10598000B42280007CB50E46150A002000900190DC
:105990006946284674F4F2D49DF8062069462846E4
:1059A00002F020F80446CCB164F4F0D2C0B164F443
:1059B000EDD2C01C81B23288002320466EF4CED6D0
:1059C0006946284608F0AAFD40B106A24021002001
:1059D00003F468F02146684660F436D000207CBDB0
:1059E0000020E7E7523A333A7361766520636363D8
:1059F000640A00007CB5DDE90654CDE9005468F482
:105A0000F1D0BDE87C4007F0DFBD0000024901484D
:105A100008607047F55900014823800010B588B030
:105A2000044668F46DD30020079007A856F414D2FA
:105A30000798FFF707FF2068019060680290A06850
:105A40000390E0680490208AADF81400608AADF8F5
:105A50001600A08AADF81800E08AADF81A0001A877
:105A600056F424D256F404D2034801680161416817
:105A7000416108B010BD0000300100B070B5194898
:105A80000468194D2878002801D0002070BD4FF01F
:105A9000806073F42DD302F43BF1600874F438D2C3
:105AA000124908608817114901262C3908601049ED
:105AB0007006C1F8FC01C8674FF03041086B40F038
:105AC00007000863094C303C206840F4E020206067
:105AD00002F45BF12E70206820F4E02020600120A9
:105AE00070BD00006C2480007046800070C500A06E
:105AF00084E000E070B50024EFF31086012080F30D
:105B0000108802F45DF1104D28B102242968B9B162
:105B10000220884714E0FFF779FE20B1296879B1A7
:105B2000002088470CE0FFF7A9FF28B1022429686C
:105B300031B10220884703E0296809B10020884775
:105B400086F31088204670BD5C2480002DE9FC4758
:105B500005460C46FFF79CFD6AF4C8D3074630485B
:105B6000006800B180470120FCF708FBDFF8B49023
:105B7000DFF8B480E16999F8000098F80020024449
:105B8000B1FBF2F1CEB216FB00F1A06966F40ED4BF
:105B9000286864F49DD7686860F4AAD6286968F418
:105BA00049D3A86863F442D1E86863F4E7D11F4899
:105BB0004DF470D51E484DF473D51E484DF476D57E
:105BC0001D4856F49FD11D484DF41AD51C484DF47C
:105BD0001DD51C484DF420D51B4866F4BBD34FF0AF
:105BE000806073F485D22046FFF718FFD4E90A01DC
:105BF000CDE9000199F80010A06916FB010098F8A2
:105C0000001016FB01F1D4E90823104C2468A047CA
:105C100038466AF435D3BDE8FC4766F47F9400004B
:105C20008026800029D507002AD50700119F07008C
:105C3000B9C3060065C40600EDAF070025ED0600F8
:105C400045ED060065ED0600799B070048238000BE
:105C5000034900EB800001EB800080887047000062
:105C600034458000034A00EB800002EB8000818015
:105C7000704700003445800070B504460D46194E4B
:105C80000022194B20462946FCF786FD06D23068D3
:105C900020F4704040F44050306070BD0022134B3F
:105CA00020462946FCF790FD0DD2002213462046DF
:105CB0002946FCF771FD06D2306820F4704040F4AC
:105CC0008040306070BD0022094B20462946FCF719
:105CD0007BFDF7D2306820F4704040F4A040306083
:105CE00070BD000024C500A0008040C000003EC080
:105CF0000000244010B508F01DFB07F04FFC09F030
:105D00005DF900F045FBBDE8104008F009B900005E
:105D10002DE9F04F87B07B48D0F800900024002593
:105D2000A246002609F0B0FA77480168C9F80010C9
:105D30004068C9F80400754800680830059009F10A
:105D400008000690042203A9059800F0EDFABDF8BA
:105D50000C10A1F57F40FF3843D0082203A9059815
:105D600000F0E2FABDF80E006FF426D500F0FF084F
:105D7000BDF80C00002867D00698A9EB000707F5CE
:105D80008057BDF80E1008F1080083460844B84259
:105D900063D805AB082203A906A800F0EBF8BDF80C
:105DA0000E00002300EB080205A906A807F062FC1C
:105DB000641CBDF80E005844B842C3D10020CDE9A0
:105DC000006053464A462146284609F003FC002855
:105DD00026D1824600260024CDF818906D1CEDB225
:105DE000B0E70020CDE9006053464A4621462846E8
:105DF00009F0F0FB002813D16D1CECB2434D4FF4B9
:105E00008057434E08E0286800EB0430394602F022
:105E100013FF40B1641CE4B2707AA042F3D80020B2
:105E200007B0BDE8F08F3B488169407A40F262429A
:105E3000CDE900200291384B38A24FF400410020F8
:105E400002F430F60920EBE7BDF80E00059908F1E1
:105E5000080808444044059074E7082F29D305AB8F
:105E6000082203A906A800F085F8083F2FB10023F7
:105E70003A4605A906A807F0FDFB611C0020CDE904
:105E8000006053464A46284609F0A4FB0028C7D1C3
:105E90008246BDF80E004044C61B0024CDF8189081
:105EA0006D1CEDB20023324605A906A807F0E2FBFF
:105EB00048E705AB3A4603A906A800F05BF8611C69
:105EC00003A8CDE9006053464A46284609F082FB04
:105ED0000028A5D1C7F1080ABDF80E0000EB08069E
:105EE0000024CDF818906D1CEDB20123524605A98F
:105EF00006A807F0BFFB0023324605A906A807F055
:105F0000B9FB1FE798468000ACD50700CC23800082
:105F1000D8328000641F800088FD0001523A353A73
:105F200025732C204C256420666C61736820737483
:105F3000617465203078253032582C206572726F7C
:105F400072203078253038580D0A00000221B0FB4D
:105F5000F1F2FF2A04D8B0FBF1F201FB12022AB1E0
:105F6000491CC9B24029F2D300207047B0FBF1F0C0
:105F7000C0B2704770B5044615461E462A462068D2
:105F8000FCF704F930682844306020682844206019
:105F900070BD000010B50548017B491C017300204D
:105FA00073F424D6BDE8104000F050B8DC44800003
:105FB0002DE9FE43FFF781FB1E48016821F4003103
:105FC00001601C4E083E30681B4980B208433060B7
:105FD0001A4803C8CDE9000116482C380068C821CA
:105FE00000F007001DF8000010FB01F514480768D9
:105FF000144CD4F800803846414602F065FD6268D2
:106000006068831AAB42FBD34146384602F03CFD40
:1060100007F0F0FA02909DF8080028B19DF80800FA
:10602000094948618861C861306820F07F4030606C
:10603000BDE8FE8330C500A000008F11C8620001DA
:10604000FCED00E0001000E0DC4480002DE9FC41A4
:106050002D4E306820F07F4040F0885030602B4853
:1060600003C8CDE9000128482438006800F0070182
:106070001DF80100C82110FB01F525480768254CD3
:10608000D4F800803846414602F01EFD626863681D
:10609000981AA842FBD34146384602F0F5FC002589
:1060A00007F0A8FA0446DFF87080D8F81800844298
:1060B00001D9012700E0002773F43ED440B91FB195
:1060C000D8F81800201A02E0D8F81800001BC5B252
:1060D000D8F81800C8F82000B5EB900F03D8292C89
:1060E00001D8112C02D200F019F807E000EBC00033
:1060F00020440A21B0FBF1F0C8F81800306820F005
:106100007F403060BDE8FC8128C500A0C862000166
:10611000FCED00E0001000E0DC4480002DE9F04FD1
:1061200087B0002006900824DFF890811A20C8F874
:10613000140063480168634A89B21143016005A8ED
:10614000FDF7DAFE0220FDF7DFFEDFF8749109F1BA
:106150000809D9F8000020F47C3040F42030C9F858
:10616000000059A003C8CDE90201DFF854A1AAF14B
:10617000240ADAF8000002A900F00700085CC82130
:1061800010FB01F5DFF848B1DBF800000190514F3A
:106190003E680198314602F097FC78687968091AE0
:1061A000A942FBD33146019802F06EFC07F022FAB7
:1061B00004909DF81010D8F81400814204D99DF87D
:1061C0001020811C8A4263D99DF81010814204D2AC
:1061D0009DF81020811E8A425AD29DF810108142EB
:1061E00001D9012500E0002515B1641C64B201E06D
:1061F000641E64B2202C11D3D9F8000020F47C3046
:1062000040F42030C9F80000D8F83C00401CC8F821
:106210003C00002004900120069039E0D9F80000ED
:1062200020F47C3040EA043040F40030C9F800002B
:1062300025A003C8CDE90201DAF8000002A900F0A8
:106240000700085C642110FB01F6DBF800000190F8
:1062500038680090DDE9001002F036FC7868796853
:10626000091AB142FBD3DDE9001002F00DFC07F082
:10627000C1F9049035B19DF81000D8F81410884287
:10628000B2D805E09DF81000D8F814108842ABD3BE
:106290009DF81400FDF738FE0948016821F07F41A0
:1062A00001609DF81000C8F81800D8F82400401CC0
:1062B000C8F82400069807B0BDE8F08FDC448000E1
:1062C00028C500A000008F114030101810200000D9
:1062D000FCED00E0001000E070B504460D460F4EE6
:1062E00000220F4B20462946FCF76EFA08D2D6F85A
:1062F000200220F4706040F44070C6F8200270BDA7
:106300000022084B20462946FCF746FAF7D2D6F879
:10631000200220F47060C6F8200270BD00E000A0EA
:1063200000004940000044402DE9F04105460E467A
:106330001746094C2378002B02D000206FF4B0D50B
:106340003A463146284602F0B7FC054620786FF4FD
:10635000A7D52846BDE8F081C92380002DE9F0418A
:1063600005460E461746094C2378002B02D0002024
:106370006FF496D53A463146284602F0ADFC054604
:1063800020786FF48DD52846BDE8F081C9238000C0
:106390000121024A002069F4E7930000D57E000144
:1063A000F0B591B004460025402101A8FBF707FF96
:1063B00066682768072060602060204602F048F881
:1063C000204602F085F8202201A9204602F0AEF90D
:1063D000102101A830F811201544491C89B2202948
:1063E000F8D3C5F30F1566602760204602F030F839
:1063F000204602F06DF84FF6FF7011B000EA45003C
:10640000F0BD000010B5104C02220421204604F01B
:106410001BFD01221021204604F016FD02228021DE
:10642000204604F011FD02224021204604F00CFD1C
:1064300002222021204604F007FD20460222BDE86A
:106440001040082104F000BD001001A02DE9FE4F0E
:106450008246894614461D460020019002908046DF
:1064600000270090684608F017FC3148016821F4C5
:10647000C07141F080010160416821F480514160A8
:106480000026504608F01CFA07F0E4F901F072FC0F
:10649000019001980744484608F012FA07F0DAF92B
:1064A00001F068FC0290DDE90110401A8044761C7E
:1064B000072EE6DB4046FCF7F2F81E4E002233467C
:1064C000FCF76DF807F034FDFCF735F980463846E7
:1064D000FCF7E5F800223346FCF761F807F028FDE9
:1064E000FCF729F903460020134A1BE000FB08F1E2
:1064F000B1FBF4F119440191104E0199B6FBF1F191
:1065000029540F4E0199B6FBF1F19DF8006031441A
:10651000C9B21154802903D90A4E36783144115436
:10652000401CC0B2A042E1D307F070F9BDE8FE8F75
:10653000802001B000001C40EC06810000C0A832A1
:106540000080D7257C4680002DE9FE4F07460D468A
:1065500002AA2946384608F061FF10B10298BDE84A
:10656000FE8F029C00260296DFF8688098F80000F3
:1065700010B100206FF494D4DFF85CA04FF6FF79DF
:1065800008226946204602F097FBBDF80000484506
:1065900002D12E80029617E0B84206D115B1BDF89F
:1065A00002002880083402940EE0BDF802006FF467
:1065B00003D1BDF80210083021444418DAF8000075
:1065C0008442DDD32E80029698F800006FF468D4E0
:1065D0000298C4E7C9238000D023800070B5064626
:1065E0000024094D0BE004EBC40005EB8000801C87
:1065F00007223146FBF7EEFD20B1641CE4B2287897
:10660000A042F0D8204670BD3804810010B50021AA
:10661000084B5A681B8809E052F83140844203D184
:1066200002EBC100406810BD491C89B29942F3D306
:1066300010BD00009444800010B50021084B5A683A
:106640001B8809E052F83140844203D102EBC100BB
:10665000406810BD491C89B29942F3D310BD0000B7
:106660008844800010B50021084B5A681B8809E057
:1066700052F83140844203D102EBC100406810BDA2
:10668000491C89B29942F3D310BD00009C4480009C
:106690000349095C002902D0002105F0DBB87047EE
:1066A000A205810010B5884210D808290ED2094BE6
:1066B000074A5A6006E003EB8002946844F0010444
:1066C0009460401C8842F6DD0320186010BD000075
:1066D00000400030002000E02DE9F047164F3868F8
:1066E000002826D04FF00009002400250526DFF8F9
:1066F0004C8013E005EB4501012018F82120904063
:106700003A68104208D008EB81032246D3E9010120
:10671000641CE4B200F020F86D1CEDB2B54201D269
:10672000062CE7D3641EE1B24846BDE8F047FFF708
:10673000B9BFBDE8F087000084448000C8FB0001B9
:1067400013B532230122694602481BF438D1009860
:106750001CBD000078F1800070B505461446114854
:1067600040F8345000EBC4004160284601F0DAFBE9
:106770000646FF2001F0D8FB014625F001000A4B38
:10678000850703EB8402094B06D0801E906006EB60
:10679000014043F8240002E0906043F824102046B2
:1067A00070BD0000643D8000002000E0004000302B
:1067B0002DE9FC410C46434A6178A07852F821103B
:1067C000CDE90010237840A21021002002F46AF1E4
:1067D000607801264B4F052530B1012833D00228BF
:1067E00045D003286AD152E020786BF457D7C0B265
:1067F000C0EBC00107EB81014D72A278452A05D19B
:10680000CA681278022A13D081F8206091F82020FB
:10681000012A04D0022A02D0032281F8202091F814
:106820002020022A4AD0C9680978022906D102E04C
:1068300007224A72EAE7A17845293FD0324A00216F
:10684000126890473AE087F89950A078452805D11A
:1068500097F89C00022801D087F89C6097F89C006C
:1068600002282BD0294900200968884726E087F8AC
:10687000A550A078452801D187F8A86097F8A8000E
:1068800006281BD0224900200968884716E0207896
:106890006BF466D7C0B207EB001181F8B150A27853
:1068A000462A01D0CE2A01D181F8B35091F8B31015
:1068B000022903D0174A0021126890470020BDE842
:1068C000FC81000068228000523A313A61637420F2
:1068D00073746F707065642C206163745F69647891
:1068E0003A2025642C206163745F747970653A20C6
:1068F00025732C20726561736F6E3A2030782530D5
:1069000032780A007C278000102280001422800048
:10691000182280001C2280002DE9FF470C46667873
:106920008DF80D6020784FEA1329CDE900905A4B7D
:106930005AA210210296002002F4B4F02078644993
:10694000644F4FF0000801EBC905092861D008DC4D
:10695000092824D2DFE800F09A8B9A4A4A9A9A24AE
:10696000240017282FD004DC0B2807D0142816D1B8
:106970006AE0182814D0192811D111E06078222873
:106980000DD1002069F47CD45348006828B14368D5
:106990001BB100220F214846984769F4A7D475E03F
:1069A0006AF464D3044685F80580002069F468D44D
:1069B000386828B1436D1BB1224631464846984796
:1069C00069F494D462E06AF451D3044685F80480F3
:1069D000002069F455D4386828B183681BB1224679
:1069E00031464846984769F481D44FE06AF43ED373
:1069F000044685F80680002069F442D4386828B13E
:106A0000836D1BB1224631464846984769F46ED4DF
:106A10003CE06AF42BD3044685F80280002069F438
:106A20002FD4386830B1C36C23B136B12246314619
:106A30004846984769F45AD428E0002CFAD02246F8
:106A4000314648469847F5E76AF410D3044685F87E
:106A50000380002069F414D4386828B1C36D1BB1D9
:106A6000224631464846984769F440D40EE06078A3
:106A700060B1002069F404D4386828B1C36B1BB13D
:106A8000617800224846984769F430D46AF4F4D219
:106A900004B00020BDE8F08724FC0001523A313AEE
:106AA00025733A20636F6E696478203D2025642C3D
:106AB000206F70636F6465203D20305825782C204E
:106AC0006572726F72203D203058257800000000FA
:106AD0002A27800098218000EC2380002DE9F041D6
:106AE000ADF50E7D0C461E0A304662F473D10746A2
:106AF000304662F46FD1002834D044A1009133466F
:106B000044A21021002001F4CDF7FF2E78D04E4D85
:106B10002088288060886880A088A880E088E88035
:106B2000207A2872607A68722F74D4F80A00C5F847
:106B30000A00E089E881454A002102EBC6000160B5
:106B40004160218822F836104FF4CA7129A8FBF75A
:106B500036FB29A85EF466D6687ADFF8F48001284F
:106B600016D101E03BA1C9E7E87B0121B1EB901F01
:106B70000ED198F81C0140070AD59DF8A40038B141
:106B8000A02101A8FBF71BFB002429AD01AF2BE0DE
:106B900004F10A02617A1546304673F40DD4617A25
:106BA0002A46304600F050FF77B1002069F468D3E0
:106BB0002A48016829B18B6B1BB1234A002130465A
:106BC000984769F493D31BE0032088F8A80017E0E6
:106BD00004EB840005EBC001093107EB041010221F
:106BE000FBF7D4FA641CE4B29DF8A400A042EFD8ED
:106BF00015499DF8A43001AA0A3130466CF482D2BE
:106C00000DF50E7D0020BDE8F0810000534C41568B
:106C100045000000523A313A636F6E6E65637469E5
:106C20006F6E5F7265715F696E645F68616E646CE0
:106C300065723A20636F6E6964782025642C207237
:106C40006F6C652025730A00182780002A278000B2
:106C50007C2780004D41535445520000982180000C
:106C60002DE9F0410D46E879FF2819D01B4FB9688E
:106C700089B300246BF4F2D4C6B216B1032E05D04A
:106C800008E0E8796BF40AD5C4B203E0E8796BF464
:106C900067D5C4B2BB682A462146304698471AE0F9
:106CA00000210E2064F420D60446A4B101202070F7
:106CB0002868C4F80300A888A4F80700A8796072BF
:106CC000E8796BF4EBD4A0700E2120466AF4E2D18F
:106CD000204664F407D60020BDE8F081B04480006F
:106CE00030B58FB006200E9000250795514C03203B
:106CF00020700F20607084F82F5084F82E504FF4CD
:106D00000070E08420850A2084F82A001B2060841B
:106D10004FF4A470A0840CAA0EA9012065F47AD2C5
:106D200038B108A807F0ECFF18B907A808F01AF95D
:106D3000D0B1A5764FF461706080208C40F0800067
:106D4000208405A84DF4F6D2059806990844FBF76F
:106D500015FA019502950395049508A807F0D0FF50
:106D6000344C0A34E8B35EE00120A0763248007863
:106D700020B39DF82000412813D09DF82A002071EF
:106D80009DF82D0060719DF82E00A0719DF82F00D8
:106D9000E071BDF81C002072C02141EA1020607231
:106DA000C8E79DF8280020719DF8290060719DF8C2
:106DB0002A00A0719DF82B00E071EAE79DF8200001
:106DC000412815D09DF82A00A0719DF82D00E07192
:106DD0009DF82E0020729DF82F0040F0C0006072D8
:106DE00000E014E0BDF81C006071000A2071A1E70A
:106DF0009DF82800A0719DF82900E0719DF82A00F7
:106E000020729DF82B0040F0C0006072E8E710226D
:106E100001A908A8FBF7DEF928B1102208A920462D
:106E2000FBF7B4F902E0204673F412D203F0F2F853
:106E30000FB030BD7E288000B044800070B50D4694
:106E4000EFF311801D490A781D490968C1F3022139
:106E5000491C01248C401119C9B281F311881C0A04
:106E60001849002301EBC402136053604FF6FF7210
:106E700021F83420C0B280F31188AB7812A210211F
:106E8000002001F40FF6204673F42ED320466DF453
:106E9000A3D7204673F430D2002069F4F1D1114811
:106EA00002683AB1D36B2BB1A8789030C2B20021FE
:106EB0002046984769F41AD2002070BD02E400E031
:106EC0000CED00E02A278000523A313A646973637E
:106ED0006F6E6E20726561736F6E203D2030782575
:106EE000780A0000982180002DE9FC5F0446EFF34A
:106EF00011876D4801786D480068C0F30220401C7E
:106F00004FF0010B0BFA00F00844C0B280F3118877
:106F100069F4ECD18146664D0094DFF8988195F8CC
:106F2000A50065A2102158F82030002001F4BAF520
:106F30008DF8054095F8A53007200C210D2200267C
:106F40004FF0090A0A2B74D2DFE803F0050C97977B
:106F50009719283C424D6AF435D585F8A5B085F8D7
:106F6000A86090E0002C09D085F8A56085F8A6609F
:106F70008DF8041001A9002069F47ED283E095F811
:106F8000A600A22804D06AF40BD785F8A5A07AE061
:106F90006CF4D8D5062085F8A50074E04CB16AF4ED
:106FA000FFD685F8A5A0042085F8A80085F8A9409B
:106FB00069E085F8A5008DF8041001A9002069F4A6
:106FC0005BD260E06CF410D7082085F8A5005AE089
:106FD000002C58D085F8A5008DF8042001A90020C8
:106FE00069F44AD24FE0A4356E70FF2028702879EA
:106FF000A43D042807D0062812D03C4C012819D003
:10700000032824D03FE085F8A8608DF8041095F897
:10701000A9008DF8050001A9002069F42DD232E005
:1070200085F8A8608DF8042001A9002069F424D215
:1070300029E022E085F8A860002069F421D12068C9
:1070400010B1406C00B1804769F450D11BE085F865
:10705000A860002069F414D1206858B1806B48B151
:10706000234800886EF4DED32168C0B2204A8B6BBF
:107070000021984769F43AD105E04FF452721DA1FE
:1070800022A001F40BF595F8A50021A2102158F8D3
:107090002030002001F406F5484669F4F1D0F8B23A
:1070A00080F31188BDE8FC9F02E400E00CED00E0F5
:1070B0007C27800028228000523A313A696E697438
:1070C0005F66736D20656E7465722C20696E6974DD
:1070D0005F73746174653A2025732C207374617436
:1070E0007573203D2025640A00000000982180006F
:1070F00018278000626C655F73646B5F6761706DF9
:107100005F70617463682E6300000000300000004F
:10711000523A313A696E69745F66736D20657869B9
:10712000742C20696E69745F73746174653A2025EC
:107130007300000030B585B00B223CA100205FF445
:107140006FD73D484FF4C8718181202141810025CE
:10715000057007218173012141708570024600216D
:1071600008465FF465D004464CB1142233496846A2
:10717000FBF70CF8ADF804406846FDF705FE2F4A12
:1071800000211823283A08465EF4CAD7044654B1B1
:1071900014222A4914316846FAF7F8FFADF8044082
:1071A0006846FDF7F1FD254A0D23103A0121002024
:1071B0005EF4B6D7044654B11422204928316846FB
:1071C000FAF7E4FFADF804406846FDF7DDFD1C4822
:1071D00005808570F7210A22084660F455D20446DE
:1071E00054B1142215493C316846FAF7CFFFADF887
:1071F00004406846FDF7C8FD40F64801FB205FF4F7
:10720000D5D5044654B114220C4950316846FAF7DA
:10721000BDFFADF804406846FDF7B6FD05B000219E
:10722000BDE83040084660F4C5970000476F6F64C2
:1072300069785F5541525400DCF08000A0F90001EC
:10724000244280002DE9F04104461846002700251D
:1072500000266FF48853E318184C06D0012B07D092
:10726000022B0CD0032B0CD105E02568666808E0E2
:10727000A568E66805E0A569E669087801E0256982
:107280006669002414E035F8343083420FD105EBF1
:10729000C4035C6874B10A4B9C4204D1034602F0FB
:1072A00029FB074606E00346A047074602E0641CA8
:1072B000B442E8D33846BDE8F08100007002800097
:1072C000116F02002DE9FC410E4629A003C8CDE94B
:1072D00000016A46314601200CF4B6D10746012F61
:1072E00043D1304609F462D6C4B2C4BB09F4EAD62D
:1072F000C5B2FF2D09D03078A02808D0A1280CD025
:10730000A22816D0A32819D10DE04B2427E031463E
:1073100028460AF481D3044610E0314628460CF48E
:107320004DD304460AE0314628460CF467D00446A3
:1073300004E03146284600F0B3FAC4B27CB9707854
:1073400068B90D4890F86E10C90708D000EB8501A8
:10735000C96850F8662FC1F816208088488324B188
:10736000064A21460120126890473846BDE8FC8154
:10737000A0A1A3A200000000000E8000EC0380008A
:1073800070B540240221C588584BEA0704D093F811
:107390006D100A2909D00A214279042A0CD354A27B
:1073A0001021002001F47EF39EE043245C4A10216A
:1073B000002001F477F397E012B1032A00D00A21EC
:1073C00093F86C30994306D0422456A21021002035
:1073D00001F468F388E00379022B05D95DA210213E
:1073E000002001F45FF37FE0690706D52AB1664A01
:1073F0001021002001F456F376E053B125F010017E
:10740000C1800D0730D5614A1021002001F44AF3F4
:107410006AE045F01001C1808D0601D44D0605D506
:107420005B4A1021002001F43DF35DE0CD0711D04F
:107430004D0707D48D070DD4564A1021002001F4C2
:1074400031F351E08D0705D5534A1021002001F496
:1074500029F349E04D0730D5C9072ED14F4A1021F5
:10746000002001F41FF33FE0012B02D0CD071ED115
:1074700019E0CD0707D08D0705D5494A1021002016
:1074800001F410F330E08D0617D5012A05D0022A49
:1074900003D0CD0701D189070FD5414A1021002023
:1074A00001F400F320E08D0701D4890605D53D4A9B
:1074B0001021002001F4F6F216E0022B13D2407ADC
:1074C000032805D938A21021002001F4EBF20BE0CB
:1074D000012A01D0022A06D128B13F4A10210020FA
:1074E00001F4E0F200E00024204670BD000E8000B0
:1074F000523A313A5B4552525F494E56414C4944EB
:107500005F504152414D5D3A20436865636B206492
:107510006973636F76657279206D6F6465210A0007
:1075200058090101523A313A5B4552525F4E4F546D
:107530005F535550504F525445445D3A20726F6C22
:1075400065206E6F7420737570706F72746564213E
:107550000A000000523A313A5B4552525F494E569A
:10756000414C49445F504152414D5D3A204368656A
:10757000636B206164766572746973696E672074E9
:10758000797065210A000000F8090101A0090101D4
:107590002C080101180B0101B80A0101740B01014B
:1075A000540A01018C080101523A313A5B455252AA
:1075B0005F494E56414C49445F504152414D5D3AFE
:1075C00020436865636B2066696C74657220706F18
:1075D0006C696379210A0000EC0801010249014845
:1075E0000860704781730001F4038000F0B5ADB00E
:1075F00004460D4616461F462878032804D0012865
:1076000009D0172812D008E002200AF4DDD6F821AC
:10761000FDF724FE01E002F045FF2DB03B46324667
:1076200029462046BDE8F0406CF4049669F41ED566
:10763000044620780A2825D300202B902C906878C7
:1076400070B96946E01D5EF451D19DF829008DF8AE
:10765000B200DDF823002B90BDF82700ADF8B00094
:10766000244E706848B1002068F40AD67368227806
:1076700068782BA9984768F439D669F4FDD40020BE
:107680002DB0F0BD68781C4E20B330886EF4CAD09F
:10769000C4B202A80090184B69780A33727A1D466A
:1076A000204673F4EDD3717A2A46204600F0CCF9D7
:1076B000002068F4E5D51148016829B18B6B1BB136
:1076C0000D4A00212046984768F410D669F4D4D4B6
:1076D0000020D5E702A9E01D5EF408D19DF8310035
:1076E0007072DDF82B00C6F80A00BDF82F00F0819B
:1076F0002478CEE7B04480001827800098218000CD
:107700002DE9F0410F461E460021002400256FF4AC
:107710008852801804D0012806D003280CD107E035
:1077200011480468456807E010480468456803E0AC
:107730000F48046845683E78002210E034F83200B3
:10774000B0420BD104EBC200406850B1FEF75EFFBF
:107750000246394630469047014602E0521CAA4292
:10776000ECD30846BDE8F081E8048000E004800026
:10777000D80480002DE9F0410646384890F8791089
:1077800000EB8100C4680025002C04D1D72234A16D
:1077900038A001F483F1FF2E55D0607C90B10AF43B
:1077A0000BD6400709D50AF407D640070AD5344856
:1077B00050F8260090F85F0020B904F11601304619
:1077C00001F488F1A07B40F6B15798B3012815D099
:1077D000022839D1082040EA06210123072240F679
:1077E000056028F4DDD40221017028F425D5E08B52
:1077F000F8B10721384629F44BD025E094F854001D
:1078000028B94FF4807216A11EA001F447F194F834
:107810005400401EC0B284F8540028B104F11C0189
:1078200020460BF406D10FE00721384629F430D06A
:10783000012509E0FFE7E08B18B10721384629F45C
:1078400027D0012500E0012525B100220121204695
:107850000BF4B4D12846BDE8F0810000000E800092
:107860006761706D5F696E69745F70617463682EC3
:1078700063000000705F616374765F696E69740015
:10788000CC0D8000705F616374765F696E69742DE2
:107890003E6E625F6175746F5F636F6E6E000000B5
:1078A00070B504460E460025194890F86C10052066
:1078B000884301D0432522E070780BF4A7D100B3B0
:1078C0000AF47AD5400702D5707802281BD05821D7
:1078D000204609F453D30446BCB10220607370788B
:1078E000607401200AF4E4D6A0820A4820600A48A5
:1078F00060600A48A0600021204609F45FD3284652
:1079000070BD4025FBE74925F9E74B25F7E7000067
:10791000000E800031790001B97900011D2A0100B3
:10792000024901480860704775770001C80480006B
:107930002DE9F0410446884608F102051D4F97F8ED
:107940007900FF2806D197F86D0097F87D1008445C
:107950000A2801D343262AE028460AF48FD7C6B264
:107960002EBB2878A073002084F85500382208F137
:10797000020104F11C00FAF709FC6A8822B1072110
:1079800040F6B15029F414D0A07B012803D197F818
:107990007E0084F854007937207B7870207B387023
:1079A0003879401C3871294620460BF442D03046C5
:1079B000BDE8F081000E800010B50446E08B002881
:1079C00004D0072140F6B15028F462D70449207B47
:1079D00081F87A002046BDE810400BF421900000A9
:1079E000000E800010B50E4B1B78984210D200EBB1
:1079F00040030C48006800EB83100B68C0F80330AC
:107A00008988A0F807108270012100F8021B10BDC0
:107A100005A24021002001F445F0002010BD000027
:107A2000E4238000DC228000523A333A67617474A8
:107A30002066696E64206974656D2C206E6F7420F9
:107A4000666F756E640A00002DE9FC4107460E461C
:107A50001446234B23A24021002001F423F00025EB
:107A600038466DF439D58DF8066020680090A088FE
:107A7000ADF80400324621463846FFF7B3FF04460E
:107A80007CB1214668465DF48DD603465BB119A2F0
:107A90004021002001F406F0384600F0B3F801253B
:107AA0000EE001250CE0237A19A24021002000F409
:107AB000F9F7207A88B12246694638466DF4EAD152
:107AC0002246294638466CF40DD7054B1AA24021B0
:107AD000002000F4E7F7BDE8FC810125F0E7000095
