:020000040100F9
:1020000000008400DD200001E9200001554380002C
:102010006343800065438000674380000000000048
:102020000000000000000000000000002D438000C0
:10203000F320000100000000F5200001FB21000159
:10204000F720000139380600DD370600F7200001CF
:10205000F7200001F7200001F7200001F720000120
:10206000C52B0001D12B0001F7200001F720000152
:10207000F7200001F7200001F7200001F720000100
:10208000F7200001F7200001F7200001F7200001F0
:10209000F7200001F7200001F7200001F7200001E0
:1020A000F7200001D137060069438000F7200001C6
:1020B000F7200001F7200001F7200001F7200001C0
:1020C000F7200001F7200001DFF80CD000F052FCEF
:1020D00000480047EF2900010000840006488047BF
:1020E0000648804706480047FEE7FEE7FEE7FEE7B2
:1020F000FEE7FEE7FEE7FEE711680001A12B000105
:10210000815900012DE9F05F0546002092469B466B
:1021100088460646814640241BE0284641464746FD
:10212000224600F070FB53465A46C01A914110D324
:1021300011461846224600F057FB2D1A67EB01089E
:102140004F4622460120002100F04EFB17EB00090C
:102150004E41201EA4F10104DFDC484631462A46E8
:102160004346BDE8F09F40EA01039B0703D009E026
:1021700008C9121F08C0042AFAD203E011F8013B73
:1021800000F8013B521EF9D27047D2B201E000F8CC
:10219000012B491EFBD270470022F6E710B513460B
:1021A0000A4604461946FFF7F0FF204610BD421CC0
:1021B00010F8011B0029FBD1801A704730B5044686
:1021C0000020034600E05B1C934203D2E05CCD5C40
:1021D000401BF8D030BD96230022114600F03EBBD4
:1021E0000EB540F2334102910021CDE900110A46BB
:1021F0000B4600F070FB03B000BD7047704770479E
:102200005858524701000000000000000020000163
:10221000002000015998524901010000000000000F
:1022200000000000000000000000000000000000AE
:10223000000000000000000000000000000000009E
:10224000F0B480EA0102D40F4200B2EB410F02D297
:102250000246084611464A0042D0C30DDDB2C1F322
:10226000C752AD1A202D35DAC1F3160141F4000230
:1022700004B15242C5F1200602FA06F12A41104487
:10228000B3EBD05F23D0C4B1012DA0EBC35009DC68
:10229000F0BC4FF0004202EAC352DBB200F500008E
:1022A00000F0DCBA400000F1807000EBC350A0F1F8
:1022B000807040EAD170490009E0490841EAC071E4
:1022C000A0EBC35000F50000400800EBC350F0BC89
:1022D00000F0BBBA6142012202EB4101001BF6E7AC
:1022E000F0BC704781F00041AAE780F00040A7E70A
:1022F00030B480EA010202F0004530F0004221F0E3
:10230000004013D090B1C30DD40DC2F31601C0F339
:102310001600E41A41F4000140F400027D349142B9
:1023200001D3641C00E04900002C02DA30BC00201C
:1023300070474FF400000023914201D3891A0343F0
:1023400040084FEA4101F7D151B1914202D14FF01B
:10235000004105E002D24FF0010101E06FF0010100
:1023600003EBC450284430BC00F06FBA2DE9FE4F97
:10237000804681EA0300C00F0C46009021F0004126
:1023800023F00045B8EB0200A94105D240462146A2
:1023900090461C460B46024623F00040104347D0AF
:1023A000270DC7F30A00C3F30A510290401A0190A7
:1023B00040286BDAC3F3130040F4801B0098924668
:1023C00020B10023D2EB030A63EB0B0B01985946B3
:1023D000C0F14002504600F007FA06460D4650464E
:1023E0005946019A00F01FFA10EB080061410024E1
:1023F00087EA115284EAE7731A4340D0009A62B325
:10240000019A012A4FEA075215DC001B61EB020119
:102410004FF0004202EA0752CDE90042001C41F5AC
:10242000801132462B4600F056FA03B0BDE8F08F1B
:1024300040462146F9E7001B61EB0201001C41F513
:10244000801300185B412018A2F5001747EB030129
:1024500040EAD570B6196D4111E06D084FEA3606B5
:1024600045EAC0754FEA0752001B61EB0201001CF0
:1024700041F5801149084FEA3000001951413246B8
:102480002B4603B0BDE8F04F00F016BA00980122C9
:1024900040000023D0EB020263EBE073009821467A
:1024A0004FEAE074B8EB000061EB0401E9E783F068
:1024B00000435BE781F0004158E72DE9FE4F81EAD8
:1024C000030404F0004421F0004100944FF0000B9D
:1024D00023F0004350EA01045ED052EA03045BD0CB
:1024E000C3F30A54C1F30A552C44A4F2F334019403
:1024F000A0FB0254C1F3130141F48011C3F3130391
:1025000043F4801301FB024400FB034E840A970A44
:1025100044EA815447EA8357A4FB076802958D0A71
:1025200005FB07854FEA932C04FB0C542705029DFD
:102530004FEA065847EA1637B5EB08056EEB070C6D
:10254000870E920E47EA811742EA8312A7FB020127
:10255000B6EB0B0164EB00042B0D43EA0C335E1861
:1025600044EB1C50DA465146E7FB0201C5F3130465
:102570004FEA0B3343EA14534FEA0432019C43EA17
:102580000603A4F10C040294009CCDE900B400F011
:10259000A2F903B0BDE8F08F00200146F9E72DE96C
:1025A000F04D81EA030404F0004B21F0004514468D
:1025B0004FF0000A23F0004150EA050220D054EA0F
:1025C00001021DD0C5F30A570246C5F31303C1F338
:1025D0001300C1F30A5640F4801543F48013A7EBAF
:1025E0000608101BD64608F2FD3873EB050002D32F
:1025F00008F1010801E092185B41B8F1000F03DA1D
:1026000000200146BDE8F08D00204FF48011064601
:1026100084460EE0171B73EB050705D3121B63EB13
:10262000050306434CEA010C49084FEA30009218B2
:102630005B4150EA0107EDD152EA030012D082EA71
:10264000040083EA0501084305D0101BAB4106D204
:102650000122002306E000224FF0004302E06FF069
:10266000010253101AEB06004CEB085110EB0A0064
:1026700041EB0B01BDE8F04D00F01EB90EB540F284
:10268000334202920022CDE90022134600F023F9E2
:1026900003B000BD20F00040C10DC0F3160040F4AF
:1026A00000007F2901DA00207047962903DCC1F180
:1026B0009601C840704796398840704770B5C1F39D
:1026C0000A5201F000450024C1F3130140F2FF3328
:1026D00041F480119A4201DA002070BD40F2334388
:1026E0009A42A2F2334203DC524200F08CF800E03E
:1026F00090402C43F1D0404270BDC1F30A5210B556
:10270000C1F3130140F2FF3341F480119A4201DA20
:10271000002010BD40F233439A42A2F2334203DC60
:10272000524200F070F810BD904010BDC1F30A5243
:10273000C1F3130140F2FF3341F480119A4202DAEF
:1027400000200146704740F233439A42A2F23342DE
:1027500002DC524200F057B800F046B830B5041E13
:1027600071F1000404DB4FF00044404264EB0101CE
:10277000141E73F1000405DB1C464FF00043524267
:1027800063EB04038B4208BF824230BD30B5041EA8
:1027900071F1000404DB4FF00044404264EB01019E
:1027A000141E73F1000405DB1C464FF00043524237
:1027B00063EB0403994208BF904230BD30B50B462D
:1027C000014600202022012409E021FA02F59D4261
:1027D00005D303FA02F5491B04FA02F52844151E35
:1027E000A2F10102F1DC30BD202A04DB203A00FA1C
:1027F00002F1002070479140C2F1200320FA03F358
:10280000194390407047202A04DB203A21FA02F055
:102810000021704721FA02F3D040C2F1200291401A
:10282000084319467047202A06DBCB17203A41FAA5
:1028300002F043EAE07306E041FA02F3D040C2F14D
:10284000200291400843194670470029A8BF7047ED
:10285000401C490008BF20F00100704710B4B0FAD6
:1028600080FC00FA0CF050EA010404BF10BC704771
:1028700049B1CCF1200421FA04F411FA0CF118BF8B
:10288000012121430843A3EB0C01CB1D4FEA00615A
:102890004FEA102042BF002010BC704700EBC3502D
:1028A00010440029A4BF10BC7047401C490008BF59
:1028B00020F0010010BC704710B5141E73F1000425
:1028C00008DA401C41F1000192185B411A4301D122
:1028D00020F0010010BD2DE9F04D92469B4611B14C
:1028E000B1FA81F202E0B0FA80F220329046FFF7AE
:1028F0007BFF04460F4640EA0A0041EA0B015346BB
:102900005A46084313D0114653EA010019D0C8F1C2
:1029100040025046FFF777FF05460E46504659469F
:102920004246FFF761FF084305D0012004E020463E
:102930003946BDE8F08D0020054346EAE0762C4399
:1029400037430A986305E40AA0EB08000022FD0A59
:1029500044EA47540A3002D500200146E9E7010560
:1029600010196941DDE9084500196941BDE8F04DDC
:10297000A2E70000064C074D06E0E06840F00103C6
:1029800094E8070098471034AC42F6D3FFF7A0FB59
:1029900080760001D076000170B58C1810F8015BCC
:1029A00015F0070301D110F8013B2A1106D110F8E8
:1029B000012B03E010F8016B01F8016B5B1EF9D1EC
:1029C0002B0705D40023521E0DD401F8013BFAE772
:1029D00010F8013BCB1A921C03E013F8015B01F8DD
:1029E000015B521EF9D5A142D8D3002070BD10B5AD
:1029F00004F050F9BDE8104002F0BABE10B51E4810
:102A00000068002800D080471C4900200870811E03
:102A10001B4801601B494FF0007008601A4CD4F845
:102A2000C002800704D4F42218A11DA003F4DCF234
:102A30002A480168D4F8C40261F31D3040F0010057
:102A4000C4F8C40203F45BF100214FF03040C160D0
:102A50008161C1174161016203F412F108484038F5
:102A6000016821F4800101601D480068002802D03F
:102A7000BDE81040004710BD60248000384280004F
:102A800044C500A080E200E000E000A07277697019
:102A90005F736C6565705F636F6D6D6F6E2E630045
:102AA0004D43555F5355422D3E424C455F44534C78
:102AB0004545505F434F52525F454E2026204D43BF
:102AC000555F5355425F424C455F44534C4545501A
:102AD0005F434F52525F48575F454E005424800079
:102AE0006424800000214FF03040C1608161C11733
:102AF000416101620649022004220A60BFF34F8F40
:102B0000BFF36F8F0860BFF34F8FBFF36F8F7047B6
:102B100080E100E004490220C1F800010860BFF331
:102B20004F8FBFF36F8F704780E100E00249096863
:102B300001F007010170704704C500A030B40628F9
:102B400021D212490A6802F00702824212D00A68B2
:102B50000F4B1A400F4C22430A6000BF00BF00BF5A
:102B600000BF0A681A400C4B024333F8203042EA97
:102B700083420A600849183951F820000749086063
:102B800030BC76F4379230BC7047000004C500A01A
:102B9000F8FFE3FF05000800707500012040800089
:102BA0000648016841F4700101600548006800F4BE
:102BB0008070002801D103F0FFBD704788ED00E070
:102BC00078C500A001481EF42C920000206280000D
:102BD00001481EF4269200002C6280000FB4054BC1
:102BE00010B503A9044A029800F054F910BC5DF82E
:102BF00014FB000069490001704080000FB41CB54F
:102C00000246002007AC00290BD0491ECDE9002167
:102C1000054B6A462146069800F03CF9009A0021CF
:102C200011701CBC5DF814FBC33500010FB4084BD8
:102C300010B504A902AA039800F02CF9044602A9D1
:102C4000002000F0C9FC204610BC5DF814FB000019
:102C5000D93500017CB5044600201D4616460029E2
:102C60000BD0491ECDE90041044B6A462946304647
:102C700000F010F9009A002111707CBDC3350001ED
:102C8000002809DB00F01F0201219140400980006B
:102C900000F1E020C0F88012704700280DDB00F042
:102CA0001F02012191404009800000F1E020C0F89E
:102CB0008011BFF34F8FBFF36F8F7047002809DB80
:102CC00000F01F02012191404009800000F1E02046
:102CD000C0F800117047002804DB00F1E02090F8F4
:102CE0000004704700F00F0000F1E02090F8140D90
:102CF000704702E008C8121F08C1002AFAD17047C5
:102D0000002001E001C1121F002AFBD17047000022
:102D10002DE9FF5F82B00021DDE90430020DDDF80E
:102D200040B0034318D044F61050A2F2FF324243A1
:102D30001514119801281FD0A5EB0B00401C5FEA69
:102D4000000A4FF000064E4FDFF83891B04650466B
:102D500015D5CAF1000413E0119801244AA30128F3
:102D600001D16FEA0B010298119AC0E90031C0E964
:102D7000024206B0BDE8F09FCBF10000DFE7044659
:102D80000021404A491842EB0450CDE9001012E0FE
:102D9000E00707D032463B4640464946FFF78DFBE9
:102DA0008046894632463B4610461946FFF785FB6A
:102DB00006460F466410002CEAD1DDE90401DDE986
:102DC0000023BAF1000F06DAFFF777FB42464B46C5
:102DD000FFF773FB05E0FFF7E2FB42464B46FFF7C8
:102DE000DEFB04460E460022284BFFF7CFFC03D83B
:102DF0004FF0FF30014607E00022254B20463146C8
:102E0000FFF7B4FAFFF792FC102409E0002C0ADB6C
:102E10000A220023FFF776F9039B30321A55641E0D
:102E200050EA0102F2D1641C039AC4F11103144464
:102E3000119A012A03D0012208430DD10AE0084368
:102E400004D000204FF0110B119072E7A3EB0B059B
:102E50006D1E0DE05B4504DD4FF0000205F101053C
:102E600004E003DA4FF00002A5F10105002AECD0DE
:102E700002981199C0E90231C0E9004579E70000E4
:102E8000000014400000F03F300000000000F0435C
:102E90000000E03F2DE9FF4F95B09B46894606466E
:102EA00000250FE2252877D100242746F84A012182
:102EB000059400E0044316F8013F203B01FA03F0BB
:102EC0001042F7D130782A2811D06FF02F033078D4
:102ED000A0F13002092A16D8059A44F0020402EB48
:102EE000820203EB42021044761C0590EFE759F88A
:102EF000042B0592002A03DA504244F40054059052
:102F000044F00204761C30782E2816D116F8010FF2
:102F100044F004042A280DD06FF02F023078A0F17D
:102F20003003092B09D807EB870302EB4303C718CB
:102F3000761CF3E759F8047B761C30786C280FD0A8
:102F400006DC4C2817D068280DD06A2814D104E07C
:102F5000742810D07A280FD10DE044F400140AE050
:102F600044F4801401E044F440147278824202D1A7
:102F700004F58014761C761C307866280BD013DCA0
:102F8000582877D009DC002875D04528F6D0462887
:102F9000F4D047281AD19DE118E0632835D0642881
:102FA00079D0652812D195E1702873D008DC6728A4
:102FB000F1D069286FD06E280DD06F2806D1B5E00A
:102FC00073282CD0752875D0782874D05A46179954
:102FD00090476D1C75E1C4F30250022809D0032804
:102FE0000DD0D9F8001004280DD00D6009F10409A6
:102FF00067E1D9F80010EA17C1E90052F6E7D9F8FD
:1030000000100D80F2E70D70F0E719F8041B8DF841
:10301000001000208DF80100EA46012003E059F875
:1030200004AB4FF0FF3061074FF0000102D40DE018
:1030300008F101018846B9420FDA8045F8DB1AF839
:1030400008100029F4D108E008F101018846814206
:10305000FADB1AF808100029F6D105985B46A0EBB8
:10306000080721463846179A00F094FA284400EBE6
:10307000080507E04DE029E10DE01AF8010B5A467A
:1030800017999047B8F10108F7D25B4621463846B8
:10309000179A13E142E00A220092C4F302524FF061
:1030A000000A022A08D059F804CB032A4FEAEC712F
:1030B0000AD00DE029E02AE009F1070121F007021A
:1030C000F2E802C1914609E00FFA8CFC4FEAEC717C
:1030D000042A03D14FFA8CFC4FEAEC71002907DA7D
:1030E0000A460021DCF1000C61EB02012D2202E016
:1030F000220504D52B228DF80420012203E0E207EB
:1031000001D02022F7E7904659E00A2102E0102280
:103110000DE010214FF0000A00910BE010224FF05B
:10312000000A44F004040827009203E008224FF04C
:10313000000A0092C4F30252022A05D059F804CBC7
:103140000021032A08D009E009F1070121F0070254
:10315000F2E802C1914605E01FFA8CFC042A01D175
:103160000CF0FF0C4FF00008220728D5702806D07D
:10317000009B83F0100353EA0A0305D00EE04022BF
:103180008DF80420012208E05CEA010206D030221A
:103190008DF804208DF8050002229046009B83F0F4
:1031A000080353EA0A030AD15CEA010201D162076B
:1031B00005D530228DF804204FF001087F1E5828D5
:1031C00004D034A003900EA802900DE036A0F9E7D9
:1031D00053466046009AFEF795FF84460398825C4A
:1031E0000298401E029002705CEA0100F0D1029841
:1031F00006A9081A00F1200A600702D524F48034D9
:1032000000E00127574502DDA7EB0A0000E000209F
:1032100000EB0A01009005984144401A0590E00334
:1032200006D45B462146179A059800F0B3F9054489
:10323000002706E001A85A46C05D179990476D1C0B
:103240007F1C4745F6DBE0030CD55B462146179A09
:10325000059800F09FF9054404E030205A4617997C
:1032600090476D1C0099481E00900029F5DC08E08D
:10327000029802995A460078491C02911799904782
:103280006D1CBAF10001AAF1010AF1DC65E1000050
:10329000092801003031323334353637383961622C
:1032A00063646566000000003031323334353637F0
:1032B00038394142434445460000000000F058F9C7
:1032C0000544761C307800287FF4ECAD19B0284610
:1032D000BDE8F08F620700D4062709F1070222F04B
:1032E000070CFCE80223E14603F000485FEA080C03
:1032F00002D00FF2702C0DE05FEA045C02D50FF2F1
:10330000682C07E05FEAC47C02D00FF2602C01E079
:10331000AFF2700C4FF0FF3823F00043CDF850C0EF
:1033200065280CD006DC452809D046281DD0472842
:103330003DD13DE0662818D067287ED138E00021D5
:10334000112F01DB112000E0781CCDE9000106A956
:103350000EA8FFF7DDFCDDE90F010E9A03910021B5
:10336000009207F1010A04914DE04FF000400097F0
:10337000CDE9011006A90EA8FFF7CAFCDDE90F028E
:1033800003920E9B11990022DDF80CA00093049289
:1033900011B9791C00EB010AB7EB0A0004D4C0F1A3
:1033A000FF3007F1010A0490AAEB0700019044E006
:1033B000012F00DA01270021112F01DD112000E08B
:1033C0003846CDE9000106A90EA8FFF7A1FCDDE90A
:1033D0000F010E9A0391002104910092BA46210731
:1033E0000CD40399514500DA8A46BAF1010F05DD84
:1033F000009AAAF10101515C302908D0B84202DAE2
:1034000010F1040F06DA0121CDE9011015E0AAF14F
:103410000101E9E7002805DC049901440491AAEBC5
:10342000000102E0411C514500DD8A460499401A22
:10343000401C01904FF000400290200704D40198F6
:10344000504501DBCDF8048000208DF84F00029834
:103450000DF14F07B0F1004F25D02B200E900298B0
:103460004FF0020800280CDA404202902D200E9006
:1034700007E00A210298FFF7A1F93031029007F81E
:10348000011DB8F10001A8F10108F2DC0298002842
:10349000EFD1791E0E980870307800F0200040F0CF
:1034A000450007F8020D12A8C01B00F10708149888
:1034B000007800B1012000EB0A01019801EBE071F6
:1034C00005984144401A401E0590E00306D45B462F
:1034D0002146179A059800F05DF805441498007885
:1034E00018B15A46179990476D1CE00324D55B46E6
:1034F0002146179A059800F04DF805441CE0049801
:10350000002807DBDDE90301884203DD0098405C09
:10351000179901E0179930205A469047049805F111
:103520000105401C04900198401E019004D12E20FA
:103530005A46179990476D1CBAF10001AAF1010A89
:10354000DDDC05E017F8010B5A46179990476D1C12
:10355000B8F10001A8F10108F4DC5B462146179A96
:103560000598ABE62D0000002B00000020000000B5
:103570002DE9F041044600251E461746880404D470
:1035800005E039462020B0476D1C641EF9D5284659
:10359000BDE8F0812DE9F041044600251E46904625
:1035A000C80301D5302700E02027880404D505E0B2
:1035B00041463846B0476D1C641EF9D52846BDE823
:1035C000F0814A68002A06D00A68531C0B6010700C
:1035D0004868401E486070470A68531C0B601070B2
:1035E000704700002DE9F05F0746894693464FEA91
:1035F0005B04A2464D465F4EDFF87C81EFF31080FE
:10360000012181F31088D8F8A41221F02001C8F814
:10361000A41280F31088EFF31080012181F3108849
:10362000D8F8A01221F02001C8F8A01280F3108869
:10363000306820F080403060504830603F20D8F83B
:10364000001160F30501C8F80011306820F4601023
:1036500040EAC7403060306820F4E02040EA07408C
:103660003060052F03D1306840F400403060062FF1
:1036700003D1306840F480403060306840F400503E
:103680003060306820F060503060306820F00F000B
:1036900040F003003060EFF31080012181F31088C7
:1036A000344A3832116821F0E04141F08041116024
:1036B00080F31088306840F08040306001E0D8F836
:1036C0000000D8F80401C0F300200028F7D1EFF380
:1036D0001080012181F31088116841F000411160D0
:1036E00080F3108834E000204FF47A711AE08842A9
:1036F00017D9306820F080403060306840F00040DA
:103700003060306820F00040306001F0B1FF1C48AC
:103710000168491C016054464D46052078F46FD27B
:103720006CE7401CD8F80421C2F30022002ADED046
:10373000D8F8040100F07F01A14200D92146002001
:1037400003E0D8F8002004C5401C8842F9D3641A6D
:10375000002CC8D15FEACB7008D0D8F80401C0F3C0
:1037600000200028F9D0D8F800002880BDE8F05FDC
:1037700001F07EBF08C500A000E000A00A0708070E
:10378000184380002DE9F04107460E464FF000082F
:103790000024274D0BE004EBC40005EB8000801CE7
:1037A00007223946FEF70AFD40B1641CE4B22878CE
:1037B000A042F0D8B8F1000F18D102E04FF0010894
:1037C000F8E728780A21B0FBF1F201FB12040A287D
:1037D00001D2401C287004EBC40105EB810039685C
:1037E000C0F80210B988C180B97901722B7811A292
:1037F0001021002009F4D2D2307800070BD504EB59
:10380000C40005EB800006F14601BDE8F0410A3036
:103810001C22FEF7A8BC04EBC40005EB800006F1F7
:103820002A01BDE8F0410A301C22FEF79CBC0000D2
:1038300038628000523A313A616464206C746B20C3
:103840006974656D2C206E756D203D2025640A001D
:103850002DE9F04104460D46154F164E0022134641
:1038600020462946FEF77AFF0FD83068C0F3412082
:10387000012808D0786C401C7864306820F4C0605F
:1038800040F400703060BDE8F08100220A4B204611
:103890002946FEF77BFFF6D8306810F4C06FF2D0EF
:1038A000386C401C3864306820F4C0603060EAE74F
:1038B000B84080000CC500A00000244006460F461A
:1038C000154672B63846FEF772FC402801D94020F2
:1038D00002E03846FEF76BFC80463046FEF767FC98
:1038E000402801D9402002E03046FEF760FC044643
:1038F0009C211048FEF750FC424639460D48FEF721
:1039000032FC0C48224631465C30FEF72CFC09485C
:103910004FF0AA31016445644FF0BB3181644FF030
:10392000CC3101654FF0DD318165002000F004F8F5
:10393000FEE700008461800030B5ADF20C4D044616
:103940004FF4806103A8FEF727FC184D202085F86E
:103950003F0085F89B003CB12846012C436DC26CAA
:1039600009D0022C0CD00FE0104A11A15C3203A840
:10397000FFF75CF908E011A103A8FFF757F903E08E
:1039800016A103A8FFF752F903A90BA2686CCDE9B1
:103990000121009018A3054A18A1002000F0DAF8D0
:1039A00000F0A4F80DF20C4D30BD000084618000E1
:1039B0005B4552524F525D20257300005B574152C8
:1039C0004E494E475D20506172616D303A25642C3E
:1039D000506172616D313A25640000005B504152C4
:1039E000414D5D20506172616D303A25642C50610B
:1039F00072616D313A256400000000006170705FF3
:103A00006173736572742E6300000000014877F4DF
:103A1000339700007440800006460F4690461D46CE
:103A200072B64046FEF7C3FB402801D9402002E0B1
:103A30004046FEF7BCFB04469C210D48FEF7ACFB5C
:103A4000224641460A48FEF78EFB09484FF05531A1
:103A5000016445644FF066318164C6644FF077318C
:103A600001654765C94381650220FFF765FFFEE7F1
:103A7000846180002DE9F04106460F4690461D46C0
:103A80004046FEF794FB402801D9402002E0404622
:103A9000FEF78DFB04469C210D48FEF77DFB224678
:103AA00041460B48FEF75FFB09484FF011310164B6
:103AB000456449008164C6644FF033310165476550
:103AC0004FF044318165BDE8F0410120FFF734BF7C
:103AD00084618000002806D0002904D0024AD269FF
:103AE000002A00D010477047606180000248006AD9
:103AF000002800D0004770476061800070B50D4617
:103B000016460D4C00280AD00178032911D801214E
:103B1000A17601461A222046FEF725FB05E000208B
:103B2000A0761A210448FEF737FBE56126620020E3
:103B300070BD012070BD000060618000044A104427
:103B4000807D084201D001207047002070470000AE
:103B5000606180002DE9FE4FDDF830B006469246E8
:103B6000994600240027019702975A480178B142EC
:103B700002D2807E00287DD10DF13808CDF800807A
:103B8000EFF311850220FFF7A6F8014652480068BE
:103B9000C0F30220401C012282408818C0B280F38A
:103BA000118801213046FFF7C9FF38B14B484C4915
:103BB00050F82620204600F0A5F804461C21304687
:103BC000FFF7BCFF00285ED046A24549204600F022
:103BD00099F8204484B204213046FFF7AFFFF8B1D2
:103BE00052463F49204600F08DF8204484B2082117
:103BF0003046FFF7A3FF38B13BA23949204600F019
:103C000081F8204484B20BE010213046FFF796FF84
:103C100030B136A23249204600F074F8204484B214
:103C200008213046FFF78AFF90B14A462C492046CA
:103C300000F068F8204484B210213046FFF77EFF80
:103C400030B12BA22649204600F05CF8204484B213
:103C500010213046FFF772FF70B15B4626A20521A6
:103C600001A8FEF7CBFF01AA1D49204600F04AF843
:103C7000204400E02BE084B220A21949204600F045
:103C800041F8204484B21648C4F58071204443466C
:103C90000D9AFEF7DFFF00974FF48071002804DBD8
:103CA0002044884201DC86B200E00E46B01C884207
:103CB00000D9FE2612A20A49304600F023F830440B
:103CC00081B20748FFF706FFE8B280F31188BDE82C
:103CD000FE8F0000606180000CED00E0604080001D
:103CE0006060800028000000200000003A00000012
:103CF000204C696E653A0000256C640029200000A4
:103D00000D0A000030B50546002000290CD0002A1D
:103D10000AD006E02B18FF2B06D8CC54521C401CAE
:103D200080B21478002CF5D130BD00002DE9F041AF
:103D300006460C46174604F10805204671F43CD5AA
:103D4000C3B21B48E1184268914202DD0320BDE87E
:103D5000F0811849184A006809681268891A081A17
:103D6000001FE91881421CD94FF4004513A22946CF
:103D7000002009F413D000F0F1F930B118A229465F
:103D8000002009F40BD00820E1E71DA229460020FD
:103D900009F404D03A4621463046BDE8F04103F02C
:103DA00023BB3A4621463046BDE8F04103F01CBB38
:103DB000D8328000D0238000CC238000523A353A9C
:103DC0004E564453206172656120697320626569B3
:103DD0006E6720636F6D7061637465642E0D0A00F9
:103DE000523A353A436F6D70616374696E67204E65
:103DF000564453206661696C65640D0A000000003A
:103E0000523A353A436F6D70616374696E67204E44
:103E1000564453207375636365737366756C0D0A3E
:103E2000000000002DE9F0410546884628466CF464
:103E300087D1C0B22449097888420DD200EB4000F6
:103E4000213040F400404246AC2101F0B5FD04466B
:103E5000200032D0012430E06CF4B6D1C7B207EBB9
:103E6000470606F1200040F400402A46072101F0F1
:103E7000A3FD10B10120BDE8F081384678F4F4D2FA
:103E800006F1210040F400404246AC2101F094FDCF
:103E90000446200001D00120EDE7223646F4004020
:103EA00073F4B4D30949C7EBC7000968084429680B
:103EB0000160A9888180A97981711CB94146284691
:103EC000FFF760FC2046D6E7382380003C238000C3
:103ED00002F00EBA10B5FFF7FBFF05490348086072
:103EE000BDE81040034877F43195000017B880040E
:103EF00074C500A00087930310B506480068002829
:103F000000D0804700F460F708B1012010BD002008
:103F100010BD00004042800070B519480468194D7A
:103F20002878002801D0002070BD4FF0806075F423
:103F3000DFD001F49BF6600875F4EAD712490860F7
:103F40008817114901262C39086010497006C1F8FC
:103F5000FC01C8674FF03041086B40F00700086370
:103F6000094C303C206840F4E020206001F4BBF6AE
:103F70002E70206820F4E0202060012070BD000039
:103F80006C2480003842800070C500A084E000E00E
:103F900070B50024EFF31086012080F3108801F43F
:103FA000BDF6104D28B102242968B9B10220884716
:103FB00014E0FFF7A1FF20B1296879B100208847FC
:103FC0000CE0FFF7A9FF28B10224296831B10220D3
:103FD000884703E0296809B10020884786F31088E4
:103FE000204670BD5C248000034900EB800001EB9B
:103FF000800080887047000010418000034A00EB79
:10400000800002EB8000818070470000104180003A
:1040100000B587B000F01AF803208DF800001D20CD
:104020008DF8160001208DF817008DF818008DF816
:104030001900044A04496846FFF760FDFFF7E6FCF3
:1040400007B000BDFF210001B14000017FB5144859
:104050008068029002240194600200900394114D44
:104060006946284601F00CF8A102009103946946C4
:10407000284601F005F80D480B4901604FF4E13185
:104080004160032181600021C16001614161012122
:10409000816101F073F8054801F084F87FBD0000EC
:1040A00088750001000001A000C600A0006080002B
:1040B0000A46014641F2883301481DF4809400000D
:1040C0000060800070B504460D46194E0022194B61
:1040D00020462946FEF742FB06D2306820F47040A5
:1040E00040F44050306070BD0022134B20462946FA
:1040F000FEF74CFB0DD20022134620462946FEF760
:104100002DFB06D2306820F4704040F480403060CF
:1041100070BD0022094B20462946FEF737FBF7D237
:10412000306820F4704040F4A040306070BD000062
:1041300024C500A0008040C000003EC00000244014
:1041400010B502F01BFB01F0B7FF02F029FD00F0F3
:1041500031FBBDE8104002F0F9B900002DE9F04F45
:1041600087B07B48D0F8009000240025A2460026A6
:1041700002F074FE77480168C9F800104068C9F879
:104180000400754800680830059009F108000690A1
:10419000042203A9059800F0D9FABDF80C10A1F586
:1041A0007F40FF3843D0082203A9059800F0CEFADB
:1041B000BDF80E0071F400D300F0FF08BDF80C004C
:1041C000002867D00698A9EB000707F58057BDF8CF
:1041D0000E1008F1080083460844B84263D805ABC6
:1041E000082203A906A800F0D7F8BDF80E000023A6
:1041F00000EB080205A906A801F0B4FF641CBDF895
:104200000E005844B842C3D10020CDE900605346A7
:104210004A462146284602F0FDFF002826D1824664
:1042200000260024CDF818906D1CEDB2B0E70020F8
:10423000CDE9006053464A462146284602F0EAFF8F
:10424000002813D16D1CECB2434D4FF48057434E00
:1042500008E0286800EB0430394600F085FE40B1E4
:10426000641CE4B2707AA042F3D8002007B0BDE825
:10427000F08F3B488169407A40F26242CDE90020EC
:104280000291384B38A24FF40041002008F486D543
:104290000920EBE7BDF80E00059908F1080808446D
:1042A0004044059074E7082F29D305AB082203A9E1
:1042B00006A800F071F8083F2FB100233A4605A97F
:1042C00006A801F04FFF611C0020CDE900605346B5
:1042D0004A46284602F09EFF0028C7D18246BDF814
:1042E0000E004044C61B0024CDF818906D1CEDB2A2
:1042F0000023324605A906A801F034FF48E705ABC4
:104300003A4603A906A800F047F8611C03A8CDE9C6
:10431000006053464A46284602F07CFF0028A5D19B
:10432000C7F1080ABDF80E0000EB08060024CDF81E
:1043300018906D1CEDB20123524605A906A801F0A4
:1043400011FF0023324605A906A801F00BFF1FE765
:104350004C428000ACD50700CC238000D8328000CE
:10436000641F80004A760001523A353A25732C20AA
:104370004C256420666C61736820737461746520D9
:104380003078253032582C206572726F7220307868
:10439000253038580D0A000070B5044615461E46F3
:1043A0002A462068FDF7DFFE306828443060206828
:1043B0002844206070BD000010B50548017B491CF1
:1043C0000173002075F412D4BDE8104000F050B81D
:1043D000B84080002DE9FE43FFF77AFD1E480168D2
:1043E00021F4003101601C4E083E30681B4980B248
:1043F000084330601A4803C8CDE9000116482C383C
:104400000068C82100F007001DF8000010FB01F54E
:1044100014480768144CD4F800803846414600F030
:10442000EBFC62686068831AAB42FBD341463846B6
:1044300000F0C2FC01F056FE02909DF8080028B181
:104440009DF80800094948618861C861306820F01A
:104450007F403060BDE8FE8330C500A000008F11B2
:10446000EC460001FCED00E0001000E0B8408000E8
:104470002DE9FC412D4E306820F07F4040F08850FF
:1044800030602B4803C8CDE9000128482438006873
:1044900000F007011DF80100C82110FB01F52548B7
:1044A0000768254CD4F800803846414600F0A4FC4B
:1044B00062686368981AA842FBD34146384600F008
:1044C0007BFC002501F00EFE0446DFF87080D8F872
:1044D0001800844201D9012700E0002775F42CD28E
:1044E00040B91FB1D8F81800201A02E0D8F8180017
:1044F000001BC5B2D8F81800C8F82000B5EB900F23
:1045000003D8292C01D8112C02D200F019F807E0A9
:1045100000EBC00020440A21B0FBF1F0C8F81800FD
:10452000306820F07F403060BDE8FC8128C500A0E5
:10453000EC460001FCED00E0001000E0B840800017
:104540002DE9F04F87B0002006900824DFF8908115
:104550001A20C8F8140063480168634A89B21143FD
:10456000016005A8FEF7E2FA0220FEF7E7FADFF89D
:10457000749109F10809D9F8000020F47C3040F466
:104580002030C9F8000059A003C8CDE90201DFF8C6
:1045900054A1AAF1240ADAF8000002A900F00700E9
:1045A000085CC82110FB01F5DFF848B1DBF800001A
:1045B0000190514F3E680198314600F01DFC78682B
:1045C0007968091AA942FBD33146019800F0F4FB3F
:1045D00001F088FD04909DF81010D8F81400814275
:1045E00004D99DF81020811C8A4263D99DF81010CF
:1045F000814204D29DF81020811E8A425AD29DF831
:104600001010814201D9012500E0002515B1641C7C
:1046100064B201E0641E64B2202C11D3D9F800000A
:1046200020F47C3040F42030C9F80000D8F83C0079
:10463000401CC8F83C00002004900120069039E09E
:10464000D9F8000020F47C3040EA043040F4003017
:10465000C9F8000025A003C8CDE90201DAF800007E
:1046600002A900F00700085C642110FB01F6DBF8EA
:104670000000019038680090DDE9001000F0BCFBFC
:1046800078687968091AB142FBD3DDE9001000F0BF
:1046900093FB01F027FD049035B19DF81000D8F888
:1046A00014108842B2D805E09DF81000D8F8141014
:1046B0008842ABD39DF81400FEF740FA0948016820
:1046C00021F07F4101609DF81000C8F81800D8F86B
:1046D0002400401CC8F82400069807B0BDE8F08FFD
:1046E000B840800028C500A000008F11403010188D
:1046F00010200000FCED00E0001000E070B5044662
:104700000D460F4E00220F4B20462946FEF73EF87D
:1047100008D2D6F8200220F4706040F44070C6F849
:10472000200270BD0022084B20462946FEF716F8ED
:10473000F7D2D6F8200220F47060C6F8200270BDCF
:1047400000E000A000004940000044402DE9F04195
:1047500005460E461746094C2378002B02D0002050
:1047600071F49ED33A463146284600F03DFC05469A
:10477000207871F495D32846BDE8F081C9238000E4
:104780002DE9F04105460E461746094C2378002BCB
:1047900002D0002071F484D33A463146284600F016
:1047A00033FC0546207871F47BD32846BDE8F081C0
:1047B000C92380000121024A00206BF4D59100003A
:1047C000DD4A000110B5104C02220421204600F001
:1047D000ADFF01221021204600F0A8FF0222802117
:1047E000204600F0A3FF02224021204600F09EFF59
:1047F00002222021204600F099FF20460222BDE837
:104800001040082100F092BF001001A02DE9FE4FDA
:1048100007460D4602AA2946384602F0E9FB10B1C8
:104820000298BDE8FE8F029C00260296DFF86880A1
:1048300098F8000010B1002071F432D3DFF85CA0CA
:104840004FF6FF7908226946204600F0CDFBBDF8FF
:104850000000484502D12E80029617E0B84206D1EA
:1048600015B1BDF802002880083402940EE0BDF8AE
:10487000020070F4A1D7BDF802100830214444189A
:10488000DAF800008442DDD32E80029698F800000A
:1048900071F406D30298C4E7C9238000D0238000B6
:1048A00010B50021084B5A681B8809E052F83140C6
:1048B000844203D102EBC100406810BD491C89B29B
:1048C0009942F3D310BD00008C40800010B588429F
:1048D00010D808290ED2094B074A5A6006E003EBAC
:1048E0008002946844F001049460401C8842F6DD24
:1048F0000320186010BD000000400030002000E0E0
:104900002DE9F047164F3868002826D04FF00009EF
:10491000002400250526DFF84C8013E005EB450157
:10492000012018F8212090403A68104208D008EB86
:1049300081032246D3E90101641CE4B200F01CF8B3
:104940006D1CEDB2B54201D2062CE7D3641EE1B274
:104950004846BDE8F047FFF7B9BFBDE8F087000063
:1049600088408000BC75000113B501216846FFF73F
:10497000B1F801201CBD000070B505461446114871
:1049800040F8345000EBC4004160284600F0CEF8F7
:104990000646FF2000F0CCF8014625F001000A4B46
:1049A000850703EB8402094B06D0801E906006EB5E
:1049B000014043F8240002E0906043F824102046B0
:1049C00070BD0000643D8000002000E00040003029
:1049D000017882781144C9B201710846704730B538
:1049E00000224271438805E044798D5C2C44447177
:1049F000521C92B29342F7D8407930BD2DE9F04372
:104A000089B081460E4600242546202101A8FDF7E5
:104A1000C3FB0027102201A94846FEF7E3FD002052
:104A200001A900F1080231F812203A4497B2401C63
:104A3000C0B20828F5D34FEAD708B9F1050F03D063
:104A4000B9F1060F20D03AE07088FDF7C9FB0446A3
:104A50000D463088FDF7C4FB06460F464046FDF77D
:104A6000BFFB32463B46FDF722FD22462B46FDF7B3
:104A700096FD154A154BFDF792FD0022144BFDF7EC
:104A800019FD04460D461AE07088FDF7A9FB04469F
:104A90000D46B088FDF7A4FB06460F464046FDF7DD
:104AA0009FFB32463B46FDF702FD22462B46FDF7B3
:104AB00076FD084A084BFDF700FD04460D4609B097
:104AC00020462946BDE8F08379E9263108AC5CBF71
:104AD00000003940B76DDBB66DDB0EC01CB5426817
:104AE0000121117000214FF48A2205E012F8013BE8
:104AF0004468491C6354C9B20829F7D3094906C957
:104B0000CDE900124168009A41F8092F019A4A60E4
:104B10000288406811216AF4E9D70349002008702F
:104B20001CBD0000587600014825800000887047B1
:104B300040F45F40704700002DE9F05F04460D46E9
:104B4000374FDFF8E080DFF8E0B04FF0663A4FEA29
:104B5000670936480068C0F3C2263A4643462046F5
:104B60002946FDF7FBFD01D2062656E03A464346AC
:104B700020462946FDF70AFE0AD852465B462046E3
:104B80002946FDF7EBFD03D2042E46D0062644E06D
:104B900052465B4620462946FDF7F8FD08D800221C
:104BA000234B20462946FDF7D9FD01D8042634E0E1
:104BB00000221F4B20462946FDF7E8FD0AD24A464F
:104BC0001C4B20462946FDF7C9FD03D2032E24D0F5
:104BD000042622E04A46174B20462946FDF7D6FD1B
:104BE00008D80022144B20462946FDF7B7FD01D80E
:104BF000032612E00022104B20462946FDF7C6FD91
:104C00000AD24A460D4B20462946FDF7A7FD03D29E
:104C1000022E02D0032600E002263046BDE8F09FB7
:104C20009A999999999901406666024010C500A029
:104C300000000440CCCC044000000840CCCC08402C
:104C40002DE9F05F04460D46DFF82CA1DFF8208146
:104C5000DFF820B14FF066394FEA4A07474800684D
:104C6000C0F3C2263A46434620462946FDF776FD64
:104C700001D2072678E03A46434620462946FDF70A
:104C800085FD0AD84A465B4620462946FDF766FD63
:104C900003D2052E68D0072666E04A465B462046CA
:104CA0002946FDF773FD08D80022354B20462946DA
:104CB000FDF754FD01D8052656E00022304B204672
:104CC0002946FDF763FD0AD252462E4B204629465F
:104CD000FDF744FD03D2042E46D0052644E052469B
:104CE000284B20462946FDF751FD08D80022264BC7
:104CF00020462946FDF732FD01D8042634E0002283
:104D0000214B20462946FDF741FD0AD252461F4B52
:104D100020462946FDF722FD03D2032E24D0042687
:104D200022E05246194B20462946FDF72FFD08D8B0
:104D30003A46174B20462946FDF710FD01D80326B9
:104D400012E03A46124B20462946FDF71FFD0AD2D3
:104D50004A46104B20462946FDF700FD03D2022E9D
:104D600002D0032600E002263046BDE8F09F000096
:104D70009999014066660240CDCCCCCC10C500A00C
:104D800000000440CCCC044000000840CCCC0840DB
:104D900099990D4066660E4005480068C00F0028CE
:104DA00004D00448007908B1012070470020704702
:104DB00040C500A0B840800010B5EFF31083012279
:104DC00082F31088094A1468002C02D01468641E0B
:104DD000146012683AB920F0807021F00101044A91
:104DE00011600449086083F3108810BD944080006E
:104DF000001000E0FCED00E010B5EFF3108201239D
:104E000083F31088074B1C68641C1C60064B40F041
:104E10008070186041F001000449086082F3108836
:104E200010BD000094408000FCED00E0001000E0A8
:104E300010B50446002C1DD0207A01281CD001207A
:104E400020721A48006818B1416809B120468847A5
:104E50001748016821F480610160EFF3108101209F
:104E600080F310881348026822F002020260006892
:104E700020B114E0012010BD022010BD0E48426890
:104E800042F001024260C26842F00072C2600268F1
:104E900042F001020260C26842F08072C26081F397
:104EA00010880020E0606072207210BD84038000D2
:104EB00014C500A000428000A0E200A070B5044626
:104EC000002C03D023492068884201D0012070BD06
:104ED000207A012805D001252572607A002610B1BC
:104EE0001EE0022070BD26721B48016821F00101FE
:104EF0000160816821F000718160EFF31080012171
:104F000081F3108815490A6842F002020A6080F3B2
:104F100010881348006818B1016809B12046884715
:104F2000022060720F48016841F48061016060688E
:104F3000012809D02068016821F4805101603046C1
:104F4000E6606572207270BD2068016841F480518E
:104F50000160F4E7006401A0A4E200A00042800028
:104F60008403800014C500A010B50B460246002142
:104F7000034800F48EF208B1002010BD012010BDDE
:104F8000641F800038B5022000906846FDF7CEFD12
:104F9000114C206880B9114820601149016001213D
:104FA00041608160EB21C1600E499DF8002051F8FD
:104FB000221001610021416176F4D8D708B10120A7
:104FC00000E00020A072044814F4C8D108B1002009
:104FD00038BD012038BD0000641F8000281F8000FC
:104FE00000D000A0A040800010B514460A4601463B
:104FF00023460448FFF7BCD908B1002010BD204665
:1050000010BD0000641F80002DE9F047C0B081464C
:105010008A4617463B4652464946174800F42FF148
:1050200018BB00243D464FF48078474501D94646D9
:1050300000E03E4609EB040133466A460E48FFF79E
:1050400097D990B90AEB040032466946FDF7B6F8E5
:1050500058B9AD1B6DB134444646B54200D82E4612
:10506000BC4202D2A019B842E4D9002040B0BDE849
:10507000F0873846FAE70000641F800070470000A0
:1050800070B505460E46074814F42AD5EFF3108490
:10509000012282F310883146284614F416D584F391
:1050A000108870BD3C40800010B506481AF438D412
:1050B000EFF31084012080F3108816F4D9D784F31D
:1050C000108810BD284080007047704770B50546B5
:1050D00006481BF4BBD7EFF31084012181F310883D
:1050E00028461BF49CD784F3108870BD30408000A4
:1050F0000068B0F1204F02D00920FDF7CEBD082096
:10510000FDF7CBBD10B50068B0F1204F07D00920E6
:10511000FDF7B6FDBDE810400920FDF7CFBD082022
:10512000FDF7AEFDBDE810400820FDF7C7BD00004B
:1051300001680748B1F1204F03D04168491C416024
:10514000704701684A1C026002A0FDF747BD0000DD
:10515000804080000D0A54686973206973202564BB
:1051600074682063616C6C2054494D4552302E0D9B
:105170000A000000704770477047000070B5054690
:1051800006481CF4C5D3EFF31084012181F3108885
:1051900028461CF471D184F3108870BD4040800013
:1051A0007047000070B5054606481CF4B1D3EFF314
:1051B0001084012181F3108828461CF44BD284F31B
:1051C000108870BD4040800070477047704770473E
:1051D0002DE9F047064634460C3CDFF800A14FF0BD
:1051E00030494FF002089AF83000FF2808D0D9F86B
:1051F0006410C20008FA02F081430143C9F8641048
:1052000037480078B0B1A42236A139A000F4ECF6FA
:1052100020462BF407D09AF83000FF2808D0D9F8A0
:105220006410C00008FA00F821EA0801C9F8641007
:10523000BDE8F087FF250A27A088A0F5885005382B
:1052400002D0012809D107E0208925F4B3D720B185
:10525000807800F00F0700E003270A2F2DD2DFE847
:1052600007F0050705072C2C2C2C2C2B002524E0FF
:105270003078717840EA0120C0F30B00A0F580710E
:10528000FF2901D8022518E00B2808D81949014444
:10529000097E21B1012101EB002085B20DE0A0883B
:1052A000A0F58851063902D1706805F42DD4124852
:1052B0000178491C017000E00225FF2D04D0E58033
:1052C00030462AF4B9D7A6E72189A0889A2305A2F7
:1052D00000F48CF620462AF4A5D79CE70808800045
:1052E000A30680006863695F70617463682E630061
:1052F00030000000501980001842800038B50020AE
:105300000090124C2078902808D015D294F82800EC
:1053100000F07F0000F14600009012E0684601F0C6
:1053200073FB94F82800BDF80010884209D900F0FA
:105330007F004630009004E0A07C00F07F0012382F
:105340000090BDF8000000F07F0038BD12328000F0
:1053500070B504460D46FFF7D1FF06460022164BF6
:1053600020462946FDF712FA1DD34FF0C042134BD9
:1053700020462946FDF70AFA02D82046294602E0CF
:105380000E494FF0C04000220D4BFDF796F8002269
:105390000C4BFDF78FF800220B4BFDF700F9FDF7E2
:1053A000C5F9301AC6B20948016821F0FE4141EA48
:1053B0000661016070BD000000000A40666606409C
:1053C00000408F400064A940000031400CC500A09F
:1053D00070B503460E461546084804683246214615
:1053E0001846FFF701FE324629462046FCF7E6FE46
:1053F00008B1002070BD012070BD00004C4280004B
:105400002DE9F05FDFF818A14FF030494FF00208A6
:105410009AF80600FF2808D0D9F86410C20008FAEC
:1054200002F081430143C9F864104FF0E027D7F838
:105430000051D7F804B17E17C7F88061C7F88461BE
:10544000BFF34F8FBFF36F8F364807F416D0044673
:10545000C7F80051C7F804B1002C2DD026602046B3
:105460002AF428D530B1E188A08847232EA200F481
:10547000BFF521E0E188A0882BF488D0FFF710FA6F
:105480000546280005D1E188A088522326A200F411
:10549000ADF535B121460C312389E288A088A847B3
:1054A00000E0002078B3012806D0022830D0722214
:1054B0001DA121A000F498F5D7F80041D7F80451B8
:1054C000C7F88061C7F88461BFF34F8FBFF36F8F58
:1054D0001448006810B3002010B103202AF472D2DF
:1054E000C7F80041C7F804519AF80600FF2808D011
:1054F000D9F86410C00008FA00F821EA0801C9F8D8
:105500006410BDE8F09FFFE720462AF48BD6D3E76E
:1055100004482146143006F4D5D7CDE70120DBE757
:1055200008088000900980006B655F7461736B5F91
:1055300070617463682E6300300000002DE9FC4741
:1055400004460D46002000900190684601F0CAFA1A
:1055500000287BD101F0B2FA80F00100F8B101F02F
:105560008DFA01003A483B4F09D090F828000830E6
:10557000396821F0FE4141EA006038601DE090F892
:1055800028600022344B20462946FDF7FFF807D853
:105590000836386820F0FE4040EA066038600CE0CB
:1055A00000222E4B20462946FDF7D8F805D838684A
:1055B00020F0FE4040EA066038609DF8040000F0EC
:1055C0001F089DF8020000F01F0A022704264FF072
:1055D00001090022224B20462946FDF7D7F802D2C6
:1055E0000427062612E000221E4B20462946FDF71E
:1055F000CDF802D20327052608E000221A4B2046E8
:105600002946FDF7ABF801D34FF00009B9F1000FBF
:105610001CD00AEB07011F2900D31F21B04502D976
:10562000A8EB060000E00020104AD072094A1832A8
:10563000136823F41F0343EA014111600549091D62
:105640000A6822F4780242EAC0400860BDE8FC879C
:10565000123280000CC500A0000049400000444008
:1056600000004E400000404000003B40B840800039
:10567000EFF31080012181F3108804490A6822F0B9
:1056800000420A6080F310887047000040C500A007
:105690000349096A884301D0002070470120704700
:1056A000002001A00548016821F0404141F08041FF
:1056B0000160024838300068704700005CC500A0F7
:1056C000EFF31080012181F31088034A6FF4807199
:1056D000116080F31088704744C500A0EFF310807C
:1056E000012181F3108805490A6822F040420A60CE
:1056F00080F3108801483830006870475CC500A00E
:105700000449086003487838016841F002010160EB
:105710007047000090C500A003490A6822F4E062C7
:1057200002430A607047000018C500A010B50E4B78
:10573000984201D1002000E0102081400B4BD3F8AB
:1057400010428C43022A0DD000200443C3F81042BB
:10575000D3F808028843012A00D000210843C3F887
:10576000080210BD0846F0E7000001A000E000A01C
:10577000FFF79AFCFEF74CFC10A0FDF72FFA10A0E3
:10578000FDF72CFA1DA0FDF729FA2BA0FDF726FA4C
:1057900038A0FDF723FA46A0FDF720FA53A0FDF745
:1057A0001DFA61A0FDF71AFA05A0FDF717FA01F03E
:1057B00083FC6CA0FDF712FAFEE700000D0A000062
:1057C0002A2A2A2A2A2A2A2A2A2A2A2A2A2A2A2A39
:1057D0002A2A2A2A2A2A2A2A2A2A2A2A2A2A2A2A29
:1057E0002A2A2A2A2A2A2A2A2A2A2A2A2A2A2A2A19
:1057F0002A2A2A2A2A2A0D0A000000002A2020200C
:105800002020202020202020202020202020202098
:1058100054696D6572206578616D706C652E20200D
:105820002020202020202020202020202020202078
:10583000202A0D0A000000002A20202020202020FD
:105840002020202020202020202020202020202058
:105850002020202020202020202020202020202048
:10586000202020202020202020202020202A0D0A57
:10587000000000002A20496E20746869732073615B
:105880006D706C6520636F64652C2074696D657242
:10589000302077696C6C20696E74657272757074F3
:1058A0002065766572792020202A0D0A000000000C
:1058B0002A2031207365636F6E642C20616E642032
:1058C00074686520554152542077696C6C20707261
:1058D000696E742065766572792031207365636F17
:1058E0006E642E20202A0D0A000000002A20546930
:1058F0006D6572312077696C6C20696E74657272A7
:105900007570742065766572792031306D732C2046
:10591000616E642070726F6772616D2077696C6C64
:10592000202A0D0A000000002A2073746F70206185
:1059300066746572203130732E20202020202020B4
:105940002020202020202020202020202020202057
:10595000202020202020202020202020202A0D0A66
:10596000000000000D0A54686973206578616D704D
:105970006C652064656D6F20656E642E0D0A0000F5
:1059800010B50648006800F48070002802D000F0CE
:105990009BFBFEE7BDE81040FCF796BB78C500A076
:1059A00010B54FF0FF342046FFF7DBDB2046BDE8A3
:1059B0001040FFF7F89B00002DE9FE4306460C4619
:1059C0001746FEF785FA2C48007878B37FB374B396
:1059D00040F6EC7084422BD84EB3A6F57F40FF38DA
:1059E00026D002A93046FEF711FF0546002D3DD016
:1059F00008226946A5F10800FEF7A8FE684601F0F6
:105A0000E7FBC8B1BDF808004FF40048A04221D11F
:105A10003A4621462846FFF7DBFC78B117A24146FB
:105A2000002007F4BBD10020BDE8FE8302E0FFE7C1
:105A30000520F9E70120F7E70920F5E716A241461E
:105A4000002007F4ABD13B4622463146284600F001
:105A50009FFBE9E71BA24146002007F49FD13B468C
:105A600022463146284600F093FBDDE73A462146C0
:105A70003046FEF75BF9D7E7C8238000523A353A43
:105A80006E7664735F70757428292073616D65206C
:105A9000646174610D0A0000523A353A6E7664739F
:105AA0005F7075742829207265706C61636520646D
:105AB00061746120776974682073616D65206C651D
:105AC0006E0D0A00523A353A6E7664735F707574E3
:105AD0002829207265706C6163652064617461209F
:105AE000776974682064696666206C656E0D0A00CB
:105AF00010B501210D4871F4A5D6002815D0012854
:105B000002D0092800D0FEE771F496D6044670F45E
:105B1000C3D101462046FFF727FA28B101212046CC
:105B200071F490D6002800D0FEE710BD00F00F0100
:105B30002DE9F04104460D4616461F4601F014F8C3
:105B4000384600F051FC3146284600F0B3F92846AB
:105B500000F00EFA00F014F80648074910F8242067
:105B6000486962F3030064F3471048610348047016
:105B7000BDE8F08170750001101F80000C428000AC
:105B800010B5FFF738D90128FBD0BDE8104013202D
:105B9000FFF7289910B50549EB2008610449096809
:105BA000C8600348FFF74DDA10BD0000101F8000E9
:105BB000641F800001460148FFF7489B641F800076
:105BC0002DE9FC41484C2068000602D420684006BC
:105BD0001FD5206820F480502060206820F40060E9
:105BE0002060206840F040002060206840F4807011
:105BF0002060206820F040002060206840F0800095
:105C00002060206840F400702060206820F0800050
:105C1000206035493548403108600020012341B2F9
:105C2000002909DB01F01F0503FA05F24909890083
:105C300001F1E021C1F88022401CC0B22228EED33D
:105C4000002001F0E1FA00252846FEF7CDF90146D3
:105C50002846FEF7D3F900F067F8FFF7A1FEFFF73B
:105C600047FF642000F0ACF900234FF4FA720121E1
:105C70001846FFF75DFF1E4875F490D51D486AF47D
:105C80002FD300F0CFF801F01BF80020FCF756FFEF
:105C9000002001F01BF8002000F09AF916A003C8BC
:105CA000CDE90001206800F007001DF800501448FD
:105CB000454314480668144C276830463946FFF7B8
:105CC0009BF860686168091AA942FBD339463046DF
:105CD000FFF772F800F042FC00F0BEFBFEF772FD29
:105CE000BDE8FC4100F012B804C500A0A0FEFFFF13
:105CF0001C438000014900014030101810200000B2
:105D0000A0860100FCED00E0001000E005480168FD
:105D100021F08071016003496FF040001439086080
:105D20007047000058C500A04FF47A700F4A116800
:105D300021F0807111604FF4C0310C4B3833196081
:105D4000116841F000711160084B6FF04001143B85
:105D500019600021136861F3DF631360401E411C6A
:105D6000FCD1106840F080701060704758C500A0EA
:105D70002DE9F04100242A4EDFF8A080274F08F1DA
:105D80007C0806F158053868C0F30170012833D04B
:105D900004EB84007179B37905EB8000194401EBC1
:105DA000C103C26803EB011102EB8102C260026908
:105DB00002EB41010161D8F80000C00616D547F694
:105DC000122076F42DD004EB840005EB80004FF414
:105DD0007A6101614900C16002218171418801F548
:105DE0007A714180818801F57A718180641CE4B206
:105DF0000C2CC8D3BDE8F08104EB840005EB8000D7
:105E00007179B379C2681944C1EB411102EB4102C7
:105E1000C260026911440161CDE7000050C500A0D5
:105E2000B840800008B500F0C1FF02206AF4FCD140
:105E3000FEF786F9FFF7B4FD164915488862164843
:105E4000C8621649086000F0ADFEFFF791FF6AF4E2
:105E50004DD2134801780F48583072F453D60020C1
:105E60006AF40ED20F494FF47A7008800F490E4839
:105E70000860002000906A4601214CF21500FFF7EF
:105E80009BFDFEF7A7FABDE80840094873F4889621
:105E9000695E8000B8408000AF5E80006C078000C3
:105EA0000C4280004624800045C30700A8268000DD
:105EB000B94300012DE9FE430E4602274FF4FA7163
:105EC0000291254A116821F0405101280CD0106838
:105ED00008431060002E05D002AA39464CF2070094
:105EE000FFF76AFDBDE8FE8302961B483038036861
:105EF00043F08003036041F080501060164828385A
:105F0000016841F080010160144840884FF47A71C3
:105F1000484313A106C9CDE900120F494C3909685D
:105F200001F007011DF8015045430028D2D00E486A
:105F3000D0F800800D4CD4F8009040464946FEF75A
:105F40005BFF62686068801AA842FBD349464046FE
:105F5000FEF732FFBEE7000050C500A00C428000F3
:105F60004030101810200000FCED00E0001000E0B0
:105F700010B51249096801280AD0022811D0FEF78D
:105F80003ADF0128FBD0BDE810400620FEF72A9F2B
:105F9000FEF731DF0128FBD0BDE810400720FEF7F7
:105FA000219FFEF728DF0128FBD00820FEF71ADF2B
:105FB000BDE8104046F2905075F4329750C500A0ED
:105FC000642801D301494880704700000C428000DA
:105FD0002DE9F04786B018216846FCF7DDF8EFF3AD
:105FE00011843048017830480068C0F30220401C1A
:105FF000012282408818C0B280F31188FEF7CCFEDF
:10600000F0BBDFF8A880D8F80050DFF8A0A00AF1B4
:10601000380ADAF8000000F07046DFF89490D9F8FA
:106020000071684600F0F6FBC8B9BDF80000B0B1D9
:1060300073F482D408B1FEF71BFA00F04DF96946FB
:106040000520FEF7DBFC01F017F869460620FEF795
:10605000D5FC01F0A9F81748816B491C8163C9F888
:106060000071C8F80050EFF31080012181F310880F
:10607000DAF8001021F070413143CAF8001000E056
:1060800001E080F31088094848300068C0F30170CF
:10609000032801D101F080F8E0B280F3118806B046
:1060A000BDE8F08702E400E00CED00E008C500A0C8
:1060B00000E000A0B8408000024901480860704735
:1060C00087370030A026800010B5054800780028EA
:1060D00002D0FEF7F1DD10BDFEF7D7DD10BD0000E8
:1060E000444280002DE9FC5F00250024DFF85CA01D
:1060F000174FEB46DAF8340205EB106515A003C81C
:10610000CDE900011548006800F007001BF8000009
:1061100000EB800046001248D0F80080D7F80090CD
:1061200040464946FEF768FE78687968091AB14228
:10613000FBD349464046FEF73FFE641C0A2CD9DBE0
:106140000A20B5FBF0F0C0B2BDE8FC9F00E000A063
:10615000001000E0403010181020000004C500A01E
:10616000FCED00E070B504460D461646286821682F
:10617000002B03D03246FEF7E9FA02E03246FEF782
:1061800033FF28683044286020683044206070BDA8
:106190002DE9F04387B00F469046994600250695B5
:1061A000A0F108060324022206A93046FEF7E8FA09
:1061B000022803D0641E14F0FF04F4D1022812D088
:1061C0001B488169407A40F24F32CDE900200291AC
:1061D000184B19A24FF40041002006F4DFD5092026
:1061E00007B0BDE8F083082204A93046FEF7AEFAF6
:1061F000BDF812006FF4E0D2C0B21B4A516871B111
:10620000BDF812300830194408445060384600F098
:106210004FFE4A4641463846FDF788FDE0E7117AD1
:10622000BDF812301944084450601572EEE70000C2
:10623000641F80001C760001523A353A25732C20E9
:106240004C256420666C61736820737461746520EA
:106250003078253032582C206572726F7220307879
:10626000253038580D0A0000D83280002DE9F04161
:1062700004460D46164E164F48360022154B204652
:106280002946FCF783FA09D2386840F4C0503860D8
:10629000306840F470603060BDE8F0810022134641
:1062A00020462946FCF772FA08D2386820F4C0501C
:1062B0003860306840F470603060EDE7386840F472
:1062C000C0503860306840F470603060E4E700002F
:1062D0000CC500A00000444010B572F4BDD40228E3
:1062E00004D0BDE81040012073F4809410BD00007C
:1062F00010B53C480168C1F38011002904D0016841
:10630000C1F3C01100296CD1016841F40071016032
:10631000016841F080010160016821F400710160B1
:10632000016841F040010160016821F48071016061
:106330002C4960310A6822F04C6242F04C620A60DB
:10634000091D0A6822F04C6242F008620A60254981
:106350007C310A68C2F34002002AFAD1214B0A229A
:1063600080331A600A6842F001020A600A68C2F3C8
:106370004002002AFAD1016821F40061016001683D
:1063800021F480510160016841F4006101600168FD
:1063900041F480510160012075F431D4EFF3108194
:1063A000012080F310880F483C30026822F48022DC
:1063B000026081F31088EFF31081012282F31088CC
:1063C000026822F48032026081F31088EFF31081BA
:1063D000012282F31088026822F40032026081F305
:1063E000108810BD04C500A011B583B00020029034
:1063F00002210191BDF80C204CF2B104002A03D017
:1064000003AA2046FFF7D8FA02AA01A9204671F490
:1064100071D178B14FF480200B490A680B4B1A40B8
:1064200002430A6008680A49C0F388200880FEF722
:106430002FDB1FBD9DF808009DF8091040EA0120E0
:10644000044901EA8020E7E738C500A0FF03F8FF10
:10645000C8408000FFFF07002DE9F84F0026002705
:1064600033480068C0F3006000285ED0FFF71AF9D7
:10647000B0F5967F59D32F4908682F4D20B1686831
:106480002E4AC043904250D3EFF310800090012079
:1064900080F310884FF000094FF0000B086840B9F6
:1064A00001262748D0F8009049F080710160D5F8A6
:1064B00000B000244EB1286820F0010028600020C0
:1064C0006860286840F001002860FFF7EBF880461C
:1064D000D5F804A0FFF7E6F8A8EB00006428F9D986
:1064E0006868A0EB0A000744641CA4B2002CE1D049
:1064F00026B1C5F800B01248C0F80090009880F3AB
:1065000010883846FBF76CFE04460E480D466421A1
:106510000068A0FB0101FCF7B1F822462B46FCF70E
:106520003EF8FCF7EAF808490860BDE8F88F00007B
:1065300058C500A094408000001000E000350C0019
:10654000FCED00E020408000044280000249014848
:1065500008607047C55D8000000580002DE9FC5F84
:106560007A48076847F080710160DFF8E481D8F865
:10657000000001904FF00009764C206820F00100E7
:1065800020600020FFF7C8F8FFF7A8F810B100203E
:10659000FFF7B6F8FFF7A2F80028FBD1FFF790F855
:1065A000206820F4805020606B4802210160BFF316
:1065B0004F8FBFF36F8F6948C0F88012206840F09A
:1065C00001002060FFF78AF80028FBD0EFF310806D
:1065D0000090012080F3108800255E4E42F2107B6F
:1065E0002C365C46D8F8000020F00100C8F8000006
:1065F0000020C8F80400DFF85CA1DAF8000020F001
:106600000100CAF80000FFF769F810B10020FFF799
:1066100077F8FFF763F80028FBD1C8204D4978319F
:106620000860DAF8000040F00400CAF80000494AA7
:1066300044320B1DEFF31080012181F310881168A3
:1066400041F04041116080F310881868C828F1D1EA
:10665000FFF736F8DAF8000040F48050CAF800007E
:10666000DAF8000040F00100CAF80000D8F8000095
:1066700040F00100C8F80000FFF730F80028FBD018
:10668000D8F804A007E0641E601C04D15C46FFF744
:1066900025F8D22804D23068C0F300200028F2D0B8
:1066A000D8F80440FFF70CF835B1A4EB0A00814498
:1066B0004FF47A70401EFDD16D1C082D91D30098C7
:1066C00080F310884846FBF78BFD0022244BFBF734
:1066D00066FF044623480D460068FBF781FD22460D
:1066E0002B46FBF75CFF00221F4BFBF7E6FE1F4A21
:1066F0001F4BFBF73BFEFCF700F81E490860154CEA
:10670000206820F0010020600020FFF705F82068D5
:1067100020F480502060206820F400502060FEF7B4
:10672000CFFFEFF31080012181F310886FF4007127
:10673000316080F310881048022101600198C8F888
:10674000000002480760BDE8FC9F0000FCED00E08F
:10675000001000E018C500A084E100E004E000E0C3
:1067600000001C402040800000006940D31742CE4A
:10677000FBFFDF3F0842800084E200E00749064853
:106780000860084906480860084907480860094940
:1067900007480860FDF79EBB913F00018024800000
:1067A000595D800068248000855D80008023800022
:1067B0006F5D80009C2380007FB5002000900190D9
:1067C000029003900024104D104E05EB0410D0E908
:1067D00005230169C0698DE80E0003900398B0425B
:1067E00005D1DDE901020099FBF7BDFC08E007498E
:1067F00003981C31884203D1DDE90101FBF7CCFC91
:10680000641C032CE1D37FBD80E90700042D060042
:106810007047000070B50446002C05D000F086F8E3
:106820000646300002D048E0022070BD244D688C3E
:106830002080A88C6080E88CA0802878132824D839
:10684000A88CFBF7CDFC1F4A1F4BFBF7A8FEFBF7FC
:1068500054FFE080E88C2081A88CFBF7C1FC1B4A28
:106860001B4BFBF79CFEFBF748FF6081E88CA08187
:10687000A88CFBF7B5FC174A174BFBF790FEFBF70C
:106880003CFFE081E88C208213E0A889E0806889E1
:10689000208128896081E888A0812889FBF7A0FCF5
:1068A0000E4A0F4BFBF77BFEFBF727FFE081E888E2
:1068B0002082288A6082E889A082304670BD00006C
:1068C0001232800098A432C51CC4F73F50340F60C8
:1068D000919FFD3F7F86376BF09E03406E693524A4
:1068E000EE31F53F10B50446002C09D000F01EF83B
:1068F000002804D10349897801F01F01217010BDDF
:10690000022010BD1232800010B50446002C08D0C1
:1069100000F00CF8002803D103490968890F2170A1
:1069200010BD022010BD0000842380002DE9FF412E
:106930000024002500950195029503952F4F44F200
:106940004478B88B00284FD10095019502950395A6
:106950002B480090012001906846FEF769FA6846CE
:10696000FEF7ACFA0F233A464421684612F448D2A7
:106970000123244A5321684612F442D26846FEF7A6
:1069800057FA38784FF6FF72E0B1B88B40452AD1FC
:10699000BE1C002036F8101021448CB2401C80B27E
:1069A0000928F7D315492031002031F8103023444D
:1069B0009CB2401C80B20628F7D3F88BA04213D0BB
:1069C000BA8311E097F8280040B997F8290028B950
:1069D00097F82A0010B997F82B0010B1A7F81C807F
:1069E00002E0BA8300E0BA83B88B404503D10020AF
:1069F00004B0BDE8F081BD831020F9E712328000B9
:106A0000006401A08423800030B587B00546002DC6
:106A10000CD000242C80FFF789FF002804D11548F2
:106A20000078902804D0012007B030BD0220FBE799
:106A30000394049405940694019402940E480390E0
:106A40000120049003A86FF481D103A86FF48AD1C8
:106A5000022301AA562103A812F4D2D103A86FF48D
:106A600075D19DF80A009DF80B1040EA012028809E
:106A70002046D9E712328000006401A008B500204A
:106A800000906846FFF72EFF0B48417801F00102A5
:106A90000078912801D2012100E000219DF800003A
:106AA000042805D0082803D0114203D0072801D0BC
:106AB000012008BD002008BD1232800008B500206A
:106AC00000906846FFF70EFF0548407800F001018E
:106AD000C0F3C00001B108B1002008BD012008BD0D
:106AE0001232800010B50446002C04D0FFF71EFFC0
:106AF000014611B134E0022010BD1A4A5078C0F3AB
:106B0000400020705078C00702D0907C607002E096
:106B100092F82800607092F82900030606D500F06C
:106B20001F03C0F34110181AA07005E000F01F0306
:106B3000C0F341101844A07092F82A00030606D54D
:106B400000F01F03C0F34110181AE07005E000F0D8
:106B50001F03C0F341101844E07092F82B0020711D
:106B6000084610BD123280000A480021016040F63C
:106B7000EB52026240F6AB42426207228262064A50
:106B8000C262016305490A6842F4F0620A600221A8
:106B90000164704780E200A004FF010700D000A05C
:106BA00000F022BB70B54FF04050416A41F0100137
:106BB00041623148016801F07F4101602E490020A7
:106BC000143908602C4D2D1F286820F4FE0040F475
:106BD0007C102860284C4C3C2068284E28493040C6
:106BE00008432060642075F40AD0206825493040AD
:106BF00008432060642075F402D0206822493040A8
:106C0000084320601C483838016841F04071016039
:106C1000642074F4F4D720681C4930400843206095
:106C2000206840F0F0002060286840F47060286020
:106C300011493439086820F470421548437A42EA11
:106C400003320A60211D0A6842F480420A60017A18
:106C5000C279090641EA02418279407941EA02217A
:106C6000014305481038016003485438016841F475
:106C70000011016070BD000058C500A0FF0000FFBA
:106C800000F70B0000EF0B0000FA0B0000FA030006
:106C9000B840800010B5FEF775F958B1FEF77AFFDD
:106CA0000020FEF787FFFEF78BFF034800680349CB
:106CB000486010BDFEE70000002000012040800079
:106CC00010B5002000F002F810BD00002DE9FC41D5
:106CD00015240E2607253148016821F4706141F41E
:106CE000407101600020009001906846FFF7FAFEB5
:106CF0002B4FA8B9FFF7E2FE18B1FEF7FFFA0546E1
:106D000004E097F8280000F07F0508359DF804009E
:106D100030B19DF8021019B100F01F0401F01F06F8
:106D20007878C0F3C00040B11E48016841F480018A
:106D3000016097F8280000F07F051A48483801687C
:106D400021F0FE4141EA05610160164834380168CE
:106D500021F080610160361D1F2E00D31F26062CF6
:106D600001D9A41F00E000240F48C4720D48443824
:106D7000016821F4780141EAC441016009483038D2
:106D8000016821F41F0141EA0641016005484038CD
:106D9000016841F400310160BDE8FC8120E200A0FF
:106DA0001232800054C500A0B8408000274908680E
:106DB0004FF6FF021040264A40F44070104308602E
:106DC00000208022002341B2002904DB01F1E021F0
:106DD00081F8002405E001F00F0101F1E02181F8C4
:106DE000142D401C2228EED31848133003702020A5
:106DF000184981F800041849087060201549491C99
:106E000081F80004A02014490D39087011490B3194
:106E100081F80004C0201049113908700D49C91DBE
:106E200081F800040C490F3908700A49183181F8BB
:106E30000004FF2005491631087006490D3181F81C
:106E4000140D054918390870704700000CED00E07A
:106E50000000FA0502E000E019E400E010B54FF48C
:106E600096710448FBF798F9024900200C3981F823
:106E7000380110BDE432800010B50B4B93F8382177
:106E80001E2A10D202EB820203EB42020468D46095
:106E90004068106105480088081A908293F838010C
:106EA000401C83F8380110BDD8328000CC2380000C
:106EB0002DE9F047CAB04A4DA5F10C0797F83861A3
:106EC000002488E004EB840135F8111081427DD163
:106ED000701E81464FF6FF78844216DA301B401E42
:106EE00000EB800008EA400A601C00EB800005EB24
:106EF0004001524601A8FBF736F904EB840005EB8C
:106F00004000524601A9FBF72EF909EB890005EB79
:106F10004000002101604160018197F83801401E66
:106F200087F838011E2E4FD1D5F818014790D5F8B3
:106F30001C014890B5F82001ADF824014899479804
:106F400046914590BDF816016EF436D4254EBDF835
:106F5000162131680844BDF824111144441808343E
:106F6000DFF8849099F8000010B100206EF498D7F3
:106F7000DFF878A0082245A92046FEF735F8BDF8CD
:106F8000140140451CD070B105F5917545982860F5
:106F9000469868603088201A288197F83801401C8C
:106FA00087F838010CE0BDF816016EF405D4BDF881
:106FB0001611083021444418DAF800008442D9D36D
:106FC00099F800006EF46CD74AB000E001E0BDE82B
:106FD000F087641CE4B2B442FFF474AFF4E700003D
:106FE000E4328000CC238000C9238000D0238000BD
:106FF0002DE9F04116461E4CA4F10C0292F83851CE
:107000000022002D02D000231A4F19E00A803260BE
:107010000120BDE8F08103EB830C34F81CC08445EB
:107020000CD103EB830004EB400042880A80018905
:1070300038680830084430600120EAE75B1CDBB2A6
:10704000AB42E8D31E2D03D20A8032600120E0E774
:1070500004F5917460886EF4AFD33968628808448F
:10706000218911440844083030600020D1E7000035
:10707000E4328000CC23800070B504460D462046E3
:107080002946FBF71BFB0B49086320462946FCF702
:10709000DFFB20462946FEF751FA20462946FFF736
:1070A000E5F820462946FDF729FB20462946FDF74D
:1070B00009F870BDB840800010B516484FF0204167
:1070C0000160154C2168491E4160FDF7FFFF114822
:1070D00012490C30016021686422B1FBF2F1491EB3
:1070E0004160FDF7F3FF0B480C3019F438D709481D
:1070F00019F435D70A484FF47A7241689142FCD3AB
:1071000004480C3019F465D7BDE81040014819F463
:10711000609700002062800020408000001000A0E6
:107120008040800010B50C4A5278C2F38002002AD9
:1071300002D0FDF701FD01E0FDF782FD07490A6875
:1071400022F4605242EAC0200860081D016841F440
:107150000031016010BD00001232800010C500A097
:107160007CB504460D460020009001906846FFF76C
:10717000B9FC00280DD107484078C0F3C0000028B2
:1071800007D1FFF79BFC002803D020462946FEF7D5
:10719000DFF87CBD1232800002488068002800D0F1
:1071A000004770470C42800070B504460D462046EB
:1071B0002946FBF783FA0549486320462946FFF72D
:1071C000CFFF20462946FFF7ADFF70BDB8408000D5
:1071D000017882781144C9B20079884201D1012036
:1071E00070470020704700004FF48A204068A0F5E7
:1071F0003061883904D10349086820F400700860C0
:1072000070470000241F800001494860704700005B
:10721000984080002DE9F04385B00446DDE90C5923
:107220000F4690461E46CDF810804E48006800EB91
:10723000043003904FF48051FDF796FE08B19CB1E5
:107240001DE049488169407A40F2CF32CDE9002003
:107250000291464B46A24FF40041002005F49ED512
:10726000092005B0BDE8F0834D49002008600123E6
:10727000082204A903A800F095F80028F1D13EB136
:107280000123324604A903A800F08CF80028E8D1B5
:107290003DB100232A4604A903A800F083F8002882
:1072A000DFD1002F5CD000247F1E1CE0049D688885
:1072B0006EF482D2698846180123082204A903A823
:1072C00000F070F80028CCD10023324604A903A8AE
:1072D00000F068F80028C4D10398811B08392846BB
:1072E000FFF7CAFD641CBC42E0D3B9F1000F12D015
:1072F0000498A8EB000404F580540123224604A955
:1073000003A800F04FF80028ABD10398011B4846B2
:10731000FFF7B2FD24E0049D68886EF44DD26988C1
:1073200046180123082204A903A800F03BF800280E
:1073300097D10498A8EB000404F58054B44200D31C
:1073400034463CB10023224604A903A800F02AF8E1
:10735000002886D10398011B08392846FFF78CFDC9
:1073600000207EE7CC238000641F8000347600017B
:10737000523A353A25732C204C256420666C617393
:1073800068207374617465203078253032582C2061
:107390006572726F72203078253038580D0A0000FF
:1073A000D832800070B505460E461446286831680C
:1073B000002B03D02246FDF7E3F902E02246FDF759
:1073C00023FEA04201D0082070BD28682044286018
:1073D0003068204430600348016821440160002087
:1073E00070BD0000D83280002DE9F74F86B004460A
:1073F0000D4628466EF4E0D1C6B2ADF81040ADF8A7
:10740000125004A8FDF7E4FA04A80899FDF7E7FA7A
:107410004FF00008ADF816800324DFF8FC903F4FD2
:107420000822D9F800103868084404A9FDF7A8F923
:10743000082803D0641E14F0FF04F1D1384C4FF437
:10744000004A082826D0A169607A4FF45E72CDE91F
:1074500000200291334B34A25146002005F49ED403
:10746000ADF81080ADF812808DF814808DF815807D
:107470003868D9F800100822084404A9FDF780F9FB
:10748000386808303860786808387860092009B0B2
:10749000BDE8F08F05F108001FFA80FBD9F8000065
:1074A00039680830354408442A460899FDF7ACFD90
:1074B000A84208D13868D9F80010014404A8FFF7A1
:1074C000DBFC002017E0A069617A40F29632CDE93A
:1074D00000210290134B14A25146002005F45ED403
:1074E000ADF810803868D9F800100822084404A9C3
:1074F000FDF746F909203A680BEB06010A443A60A9
:107500007A680832511A082902D908397960BEE729
:107510003972C7F80480BAE7CC238000D8328000E3
:10752000641F800029760001523A353A25732C20D9
:107530004C256420666C61736820737461746520E7
:107540003078253032582C206572726F7220307876
:10755000253038580D0A00000090D003006CDC0282
:107560000024F40000366E010024F4000048E80115
:107570000000000001000000040000000300000003
:107580000400000002000000FFFF000000000000F7
:1075900000000000070000001F00000001000000C4
:1075A000010000000200000007000000FFFF0000D3
:1075B00000000000000000000700000000000000C4
:1075C000A1B90200D1510001030000006D97010034
:1075D0007F52800004000000F99001009354800065
:1075E000060000007D5A0600253E0001070000004D
:1075F000C1060300015400016E7664735F696E6911
:1076000074006E7664735F64656C00696E69745FA4
:10761000756E757365645F6E766473007265706C09
:107620006163655F6974656D0077726974655F6930
:1076300074656D0077726974655F636F6D70616307
:107640007465645F6974656D7300636F6D70616309
:10765000745F6E76647300000106080081300000DC
:107660004150505F443A20004150505F453A20005D
:107670004150505F493A20004150505F573A200036
:10768000D0760001CC35003038050000F22C000126
:10769000087C00010040003020000000F22C0001B6
:1076A000287C0001204080000C0300009829000184
:1076B000647D00012C438000C81C0000F22C0001F6
:1076C0002C9A0001006080006C040000002D000175
:1076D00010B5EFF31081012080F31088FE48026896
:1076E000C2F3C032002A17D0FB4A34321268C2F308
:1076F0008A22F94B30331B68F84C24682244521C10
:107700009A4209D2F44A3C3A1368C3F380531BB936
:10771000136843F48003136081F310880168C1F398
:10772000C0310029FAD1EE48006810F0007F01D086
:10773000012000E0002008B100F0F2F9012010BDA6
:10774000E549E84A1431904204D9086820F48010D1
:1077500008607047086840F48010086070472DE9A1
:10776000FF474FF0020900200390DF480668476892
:10777000D0F808A04FF0FF34029401940094DFF891
:107780006C83DB4DD8F80400000126D501A9002048
:1077900000F0CBF96946A00700F0C7F9DDE9001059
:1077A000884202D8081A019001E0C043019003A961
:1077B000019800F0BFF90190A04200D20446504564
:1077C00007D2296809B104208847012004B0BDE828
:1077D000F087296809B105208847D8F80400C0015E
:1077E0001BD5C4480078C0B902A94FF0004000F092
:1077F0009CF903A9029800F09DF90290A04200D2E2
:107800000446B04205D2296809B104208847012006
:10781000DCE7296809B105208847D8F80400400151
:107820000ED500F08CF94100A14200D321460C4650
:10783000B84205D2296809B1062088470120C5E76A
:107840004FF0E021D1F8000210F0806F01D001204C
:1078500000E0002090B9A248001D006810F0020F5F
:1078600001D0012000E0002040B9D1F8000210F062
:10787000007F01D0012000E0002008B10120A5E731
:107880002046FFF75DFF4846A0E770B59A480068BC
:10789000804702281CD1012000F056F900F059F968
:1078A0009648006880479648406800B18047FFF7D7
:1078B00056FF944C02280CD02068804700F04EF907
:1078C00000F051F900F054F9002000F03DF90120DA
:1078D00070BD4FF48A25686841F6A866B04202D0B0
:1078E000894800F04AF900F04DF96868B04202D0CA
:1078F000854800F04CF92068804700F02FF900F02F
:1079000032F900F035F9002000F01EF94FF0E025C3
:10791000D5F800024FF0006610F0006F01D0012092
:1079200000E0002020B36C483C380068C0F3001031
:1079300010B1202000F030F9674C241D216840F27E
:107940005F10014048070DD5206863491831096868
:1079500001EA10406D490870FF2000F01DF96FF03A
:10796000040020602068C0F3001008B1C5F8006171
:10797000002070BD054600F014F96048006880479B
:1079800055482038016841F080010160016821F408
:1079900078410160504C3C3C206820F074502060DD
:1079A0000DB3206840F08070206000F0FFF80128DF
:1079B000FBD0132000F0FFF84FF47A70684300F01A
:1079C000FFF845495031086000F0F0F80128FBD07D
:1079D000022000F0F0F800F0E9F80128FBD01020B8
:1079E00000F0E9F806E000F0E1F80128FBD01320F0
:1079F00000F0E1F838481C38016821F4000101600A
:107A0000206820F4DE5040F4DE51216040F44070E4
:107A10002060314D1435286820F4800028602E48FD
:107A20000024243004602C493948283108602A4851
:107A300038300460344800F0A0F8286820F08070E6
:107A40002860286840F000702860234D2D1D2C60B0
:107A500000F0ACF80128FBD0032000F0ACF800F0F7
:107A6000A5F80128FBD0F2E770B500F0AEF8244984
:107A70000120087000F0AEF800F093F8054600F021
:107A8000AEF8244C02280AD000F0A9F8012801D150
:107A9000206880472846BDE8704000F0A5B800F097
:107AA000A8F858B11C490398086000F0A7F801280D
:107AB0000BD02846BDE8704000F096B8206880479B
:107AC0002846BDE8704000F08FB8206880472846FF
:107AD000BDE8704022E0000040C500A000E200A028
